:020000040800F2
:1000000000500020110F0008350E00083B0E0008BC
:10001000410E0008470E00084D0E000800000000C9
:10002000000000000000000000000000530E000867
:100030005F0E0008000000006B0E0008770E00083D
:10004000590F0008590F0008590F0008590F0008F0
:10005000590F0008590F0008590F0008590F0008E0
:10006000590F0008590F0008590F0008590F0008D0
:10007000590F0008590F0008590F0008590F0008C0
:10008000590F0008590F0008590F0008590F0008B0
:10009000850E0008590F0008590F0008590F000875
:1000A000590F0008590F0008590F0008590F000890
:1000B000590F0008590F0008590F0008590F000880
:1000C000590F0008590F0008590F0008590F000870
:1000D000590F0008590F0008590F0008590F000860
:1000E000590F0008590F0008590F000800000000C0
:1000F0000000000000000000000000000000000000
:0C01000000000000000000005FF808F1A3
:10010C0010B5054C237833B9044B13B10448AFF345
:10011C0000800123237010BD780000200000000037
:10012C006C3E000808B5034B1BB103490348AFF301
:10013C00008008BD000000007C0000206C3E000820
:10014C0080B582B000AF78600421174802F072F8D5
:10015C00164B174A0021786801F089FA15491348A3
:10016C0000F042FA0346012B03D1134800F006FAC3
:10017C0015E012490D4800F037FA0346012B04D163
:10018C004FF4915000F054FA09E00D49074800F083
:10019C002BFA0346012B02D10A4B01221A7000BF25
:1001AC000837BD4680BD00BF000801406005002037
:1001BC0080050020843E0008903E00089C3E00080C
:1001CC00A83E00089400002080B586B000AF00F077
:1001DC00BFFE00F087FA00F0A8FC0021002000F020
:1001EC00E9FB564800F0AAFC00F040FB00F0BCF81C
:1001FC0000F058F900F0F2F800F026F9504B082204
:10020C001A614F4B00229A604D4B0022DA604C4B26
:10021C0040F203121A604B4B00221A61494B002228
:10022C001A60484B00225A60464B00229A60454B9C
:10023C000022DA60434B0122DA61424B01221A623E
:10024C004049414801F003F83F4801F0C9F8022148
:10025C003D4801F02DFB04213C4801F0EBFF4FF42D
:10026C0000513B4801F0E6FF00237B6100233B611A
:10027C000023BB6000237B600023FB60354B1B78A5
:10028C00012BFBD14FF47A7000F0C4FE2E4801F024
:10029C00BAF90346DAB2304B1A7000233B614FF4C3
:1002AC0011737B603EE0284801F0ADF90346DAB2E9
:1002BC00294B1A7006E0244801F0A5F90346DAB27E
:1002CC00254B1A70244B1B78002BF4D002211F48AD
:1002DC0001F0B0FF0023FB6010E03B69DB00FA6823
:1002EC001344BB601D4ABB68134419781C4AFB6855
:1002FC0013440A461A70FB680133FB60FB68072B3A
:10030C00EBD9184B164A0E490F4801F0ADF80346CD
:10031C00FB70FB78002B05D13B6901333B617B699A
:10032C0001337B613A697B689A42BCD3094B00224A
:10033C001A7000233B610023BB609FE7B43E0008AA
:10034C006805002030050020080500200008014049
:10035C0000100140940000209C050020C03E0008C5
:10036C00000500205C05002080B590B000AF07F1BF
:10037C00180328220021184603F058F93B1D0022CF
:10038C001A605A609A60DA601A610123BB614FF4FB
:10039C008033FB6100237B6307F11803184602F0DE
:1003AC0021FD0346002B01D000F097F90F237B6051
:1003BC000123BB600023FB6000233B6100237B61B6
:1003CC003B1D0021184602F08DFF0346002B01D087
:1003DC0000F083F900BF4037BD4680BD80B500AF4B
:1003EC00174B184A1A60164B10225A60144B0022F5
:1003FC009A60134B0022DA60114B4FF480321A6171
:10040C000F4B4FF480125A610D4B00221A760C4B95
:10041C0000225A760A4B00229A76094B0122DA7690
:10042C00074B00221A77064B01225A77044800F03A
:10043C0013FE0346002B01D000F04FF900BF80BD26
:10044C00080500200064004080B500AF124B134A31
:10045C001A60114B124A5A600F4B00229A600E4BD5
:10046C000022DA600C4B4FF480421A610A4B0022D6
:10047C005A61094B00229A61074B0022DA61064B44
:10048C0000221A62044801F0EFFE0346002B01D053
:10049C0000F023F900BF80BDAC04002000540040E4
:1004AC00801A060080B588B000AF07F11003002257
:1004BC001A605A609A60DA602D4B9B692C4A43F0A3
:1004CC00100393612A4B9B6903F01003FB60FB68DC
:1004DC00274B9B69264A43F020039361244B9B696D
:1004EC0003F02003BB60BB68214B9B69204A43F09F
:1004FC00040393611E4B9B6903F004037B607B68D0
:10050C001B4B9B691A4A43F008039361184B9B6978
:10051C0003F008033B603B6800224FF40051154880
:10052C0001F070FE00220621134801F06BFE4FF41F
:10053C0000533B6101237B610023BB610223FB6100
:10054C0007F1100319460B4801F002FD06233B612D
:10055C0001237B610023BB610223FB6107F11003C4
:10056C001946054801F0F4FC00BF2037BD4680BD9C
:10057C0000100240001001400008014080B584B01A
:10058C0000AF7860134801F03EF80346FB7304E0BB
:10059C00104801F038F80346FB73FB7B002BF7D0B7
:1005AC000D4B40F203121A600B4B08221A6179684A
:1005BC000A4800F071F80A4B084A0749054800F050
:1005CC0053FF0221074801F035FE00BF1037BD462E
:1005DC0080BD00BF08050020680500200005002034
:1005EC005C0500200008014080B485B000AF786045
:1005FC0039600123FB730023BB600FE0BB687A6892
:10060C0013441A78BB6839680B441B789A4202D0A1
:10061C000023FB7305E0BB680133BB60BB68072B91
:10062C00ECDDFB7B18461437BD4680BC70470000E0
:10063C0080B584B000AF7860124800F0E4FF034648
:10064C00FB7304E00F4800F0DEFF0346FB73FB7BFB
:10065C00002BF7D00C4A7B6813600C4B40F2031252
:10066C001A600A4B08221A61094B074A07490548C8
:10067C0000F0FAFE0221074801F0DCFD00BF103744
:10068C00BD4680BD0805002000050020680500203F
:10069C005C0500200008014080B485B000AF786094
:1006AC0039607B68002B13D03B68002B10D00023E3
:1006BC00FB730AE0FB7B3A681A44FB7B79680B44BA
:1006CC0012781A70FB7B0133FB73FB7B072BF1D980
:1006DC0000BF1437BD4680BC704780B400AF72B603
:1006EC00FEE7000080B582B000AF00F05FFA44F680
:1006FC002063012278215B4801F0ECFF0346002BBC
:10070C0001D00023A9E040F6C4137B6002E07B68B3
:10071C00013B7B607B68002BF9D1AE220021782055
:10072C0000F0A0FA20220021782000F09BFA102281
:10073C000021782000F096FAB0220021782000F0F9
:10074C0091FAC8220021782000F08CFA00220021B6
:10075C00782000F087FA10220021782000F082FA2D
:10076C0040220021782000F07DFA8122002178209F
:10077C0000F078FAFF220021782000F073FAA12211
:10078C000021782000F06EFAA6220021782000F0DB
:10079C0069FAA8220021782000F064FA3F22002197
:1007AC00782000F05FFAA4220021782000F05AFA99
:1007BC00D3220021782000F055FA00220021782065
:1007CC0000F050FAD5220021782000F04BFAF022EC
:1007DC000021782000F046FAD9220021782000F080
:1007EC0041FA22220021782000F03CFADA22002182
:1007FC00782000F037FA12220021782000F032FA2B
:10080C00DB220021782000F02DFA20220021782014
:10081C0000F028FA8D220021782000F023FA14220F
:10082C000021782000F01EFAAF220021782000F081
:10083C0019FA2E220021782000F014FA002000F082
:10084C0043F800F013F8084B00221A80064B0022E4
:10085C005A80054B01225A71012318460837BD46B0
:10086C0080BD00BFAC0400209804002080B582B08D
:10087C0000AF0023FB711DE0FB79503BDBB21A4645
:10088C000021782000F0EEF900220021782000F001
:10089C00E9F910220021782000F0E4F9FB79DB0162
:1008AC00084A1A4480234021782000F093F9FB7900
:1008BC000133FB71FB79072BDED900BF0837BD462E
:1008CC0080BD00BF9800002080B582B000AF034609
:1008DC00FB71FB79002B01D1002300E0FF234FF4C7
:1008EC0080621946034802F0A1FE00BF0837BD46DE
:1008FC0080BD00BF9800002080B483B000AF0346D9
:10090C00FB800B46BB801346FB70FB887F2B48D8C3
:10091C00BB883F2B45D8254B1B79002B06D0FB7889
:10092C00002B0CBF01230023DBB2FB70FB78012BE7
:10093C001AD1FA88BB88DB0898B20346DB01134452
:10094C001B4AD35C5AB2BB8803F00703012101FA9E
:10095C0003F35BB2134359B2FA880346DB01134429
:10096C00C9B2134AD1541DE0FA88BB88DB0898B28F
:10097C000346DB0113440E4AD35C5AB2BB8803F026
:10098C000703012101FA03F35BB2DB435BB21340B3
:10099C0059B2FA880346DB011344C9B2044AD15454
:1009AC0000E000BF0C37BD4680BC704798040020A7
:1009BC009800002080B483B000AF03460A46FB8049
:1009CC001346BB80054AFB881380044ABB885380BE
:1009DC0000BF0C37BD4680BC704700BF9804002098
:1009EC0080B586B000AF03463960FB711346BB710E
:1009FC003A4B1B881A463B681B7813447F2B07DC49
:100A0C00364B5B881A463B685B7813443F2B01DD01
:100A1C0000235EE000237B614BE03B685A68FB7966
:100A2C00203B3968497801FB03F319467B690B4479
:100A3C005B0013441B88FB6000233B6130E0FA68C9
:100A4C003B6902FA03F303F40043002B10D0234B51
:100A5C001A883B699BB2134498B2204B5A887B6925
:100A6C009BB213449BB2BA791946FFF745FF14E0C9
:100A7C001A4B1A883B699BB2134498B2174B5A888D
:100A8C007B699BB2134499B2BB79002B0CBF012339
:100A9C000023DBB21A46FFF72FFF3B6901333B61A2
:100AAC003B681B781A463B699342C8D37B69013378
:100ABC007B613B685B781A467B699342ADD3074BED
:100ACC001A883B681B789BB213449AB2034B1A806A
:100ADC00FB7918461837BD4680BD00BF980400202E
:100AEC0080B584B000AFF860B9601346FB7112E0BA
:100AFC00FB681B78FA79B9681846FFF771FF034653
:100B0C001A46FB681B789A4202D0FB681B7808E0F7
:100B1C00FB680133FB60FB681B78002BE8D1FB689A
:100B2C001B7818461037BD4680BD80B500AF00203D
:100B3C00FFF7CAFEFFF79AFE00BF80BD0FB480B569
:100B4C0086B000AF00233B7107F124033B603B1DD3
:100B5C003A68396A184602F087FD124B1B78282B2D
:100B6C0004D9FFF7E2FF0F4B00221A700D4B1B78D4
:100B7C009BB219460020FFF71DFF3B1D01220A49BD
:100B8C001846FFF7ADFF074B1B781433DAB2054B51
:100B9C001A70FFF76BFE00BF1837BD46BDE88040EA
:100BAC0004B070479E0400200000002080B483B085
:100BBC0000AF074B7B6002E07B68013B7B607B688E
:100BCC00002BF9D100BF0C37BD4680BC704700BF6D
:100BDC0090D0030090B5C7B002AF04460846394622
:100BEC000A601946FB1D22461A70BB1D02461A707C
:100BFC003B1D0A461A8007F10C03BA1D12781A70B5
:100C0C00002387F80F3110E097F80F313A4612683D
:100C1C001A4497F80F310133117807F10C02D154B3
:100C2C0097F80F31013387F80F3197F80F319BB2DA
:100C3C003A1D12889A42E7D8FB1D1B7899B23B1DCE
:100C4C001B88013398B207F10C020A230093034668
:100C5C00034801F041FC00BF07F58A77BD4690BD03
:100C6C00AC04002080B586B002AF0346FB710B4686
:100C7C00BB7113467B71BB793B737B797B73FB79BF
:100C8C0099B207F10C020A2300930223034801F0E6
:100C9C0023FC00BF1037BD4680BD00BFAC04002054
:100CAC0080B485B000AF154B9B69144A43F0010327
:100CBC009361124B9B6903F00103BB60BB680F4B44
:100CCC00DB690E4A43F08053D3610C4BDB6903F0B4
:100CDC0080537B607B680A4B5B68FB60FB6823F08E
:100CEC00E063FB60FB6843F00073FB60044AFB6845
:100CFC00536000BF1437BD4680BC704700100240E3
:100D0C000000014080B588B000AF786007F1100397
:100D1C0000221A605A609A60DA607B681B68204A6D
:100D2C00934239D11F4BDB691E4A43F00073D361E8
:100D3C001C4BDB6903F00073FB60FB68194B9B6970
:100D4C00184A43F004039361164B9B6903F00403A8
:100D5C00BB60BB684FF400633B6100237B610023E5
:100D6C00BB6107F1100319460F4801F0F1F84FF47D
:100D7C0080533B6102237B610323FB6107F110036A
:100D8C001946094801F0E4F800220021142001F072
:100D9C00A8F8142001F0C1F800BF2037BD4680BD73
:100DAC0000640040001002400008014080B588B08B
:100DBC0000AF786007F1100300221A605A609A6045
:100DCC00DA607B681B68154A934223D1144B9B69EC
:100DDC00134A43F008039361114B9B6903F008031A
:100DEC00FB60FB68C0233B6112237B610323FB6127
:100DFC0007F1100319460B4801F0AAF8084BDB6900
:100E0C00074A43F40013D361054BDB6903F4001369
:100E1C00BB60BB6800BF2037BD4680BD005400409E
:100E2C0000100240000C014080B400AFFEE780B41B
:100E3C0000AFFEE780B400AFFEE780B400AFFEE782
:100E4C0080B400AFFEE780B400AF00BFBD4680BCED
:100E5C00704780B400AF00BFBD4680BC704780B403
:100E6C0000AF00BFBD4680BC704780B500AF00F03E
:100E7C00B5F800BF80BD000080B500AF024800F09F
:100E8C003CFD00BF80BD00BF0805002080B586B0CA
:100E9C0000AF7860144A154BD31A7B617B693B61B8
:100EAC00134B1B68002B02D1114B124A1A60104BCA
:100EBC001A687B6813443A699A4207D202F08CFB99
:100ECC0002460C2313604FF0FF3309E0084B1B68FC
:100EDC00FB60074B1A687B681344054A1360FB6878
:100EEC0018461837BD4680BD005000200004000095
:100EFC00A0040020A805002080B400AF00BFBD46B0
:100F0C0080BC7047FFF7F8FF0B480C490C4A0023D4
:100F1C0002E0D458C4500433C4188C42F9D3094AA3
:100F2C00094C002301E013600432A242FBD302F00F
:100F3C0059FBFFF749F970470000002078000020AA
:100F4C00A45E000878000020A8050020FEE7000041
:100F5C0080B500AF084B1B68074A43F010031360C1
:100F6C00032000F0B3FF0F2000F008F8FFF798FE05
:100F7C000023184680BD00BF0020024080B582B01F
:100F8C0000AF7860124B1A68124B1B7819464FF45D
:100F9C007A73B3FBF1F3B2FBF3F3184600F0CBFF1B
:100FAC000346002B01D001230EE07B680F2B0AD8DF
:100FBC00002279684FF0FF3000F093FF064A7B68FF
:100FCC001360002300E0012318460837BD4680BD9E
:100FDC0008000020100000200C00002080B400AF9E
:100FEC00054B1B781A46054B1B681344034A1360C8
:100FFC0000BFBD4680BC704710000020A00500203B
:10100C0080B400AF024B1B681846BD4680BC7047CD
:10101C00A005002080B584B000AF7860FFF7F0FF2A
:10102C00B8607B68FB60FB68B3F1FF3F05D0094BF0
:10103C001B781A46FB681344FB6000BFFFF7E0FF08
:10104C000246BB68D31AFA689A42F7D800BF103729
:10105C00BD4680BD1000002080B584B000AF786024
:10106C007B68002B01D10123EDE07B6893F82030E5
:10107C00DBB2002B02D17868FFF744FE7B681B685B
:10108C001A687B681B6842F001021A60FFF7B8FF10
:10109C00F86012E0FFF7B4FF0246FB68D31A0A2B84
:1010AC000BD97B685B6A43F400327B685A627B68BD
:1010BC00052283F820200123C5E07B681B685B6850
:1010CC0003F00103002BE5D07B681B681A687B6872
:1010DC001B6822F002021A60FFF792FFF86012E020
:1010EC00FFF78EFF0246FB68D31A0A2B0BD97B68DD
:1010FC005B6A43F400327B685A627B68052283F892
:10110C00202001239FE07B681B685B6803F00203CF
:10111C00002BE5D17B681B7E012B08D17B681B68FB
:10112C001A687B681B6842F080021A6007E07B68D3
:10113C001B681A687B681B6822F080021A607B6847
:10114C005B7E012B08D17B681B681A687B681B6867
:10115C0042F040021A6007E07B681B681A687B68E3
:10116C001B6822F040021A607B689B7E012B08D121
:10117C007B681B681A687B681B6842F020021A6047
:10118C0007E07B681B681A687B681B6822F02002EA
:10119C001A607B68DB7E012B08D17B681B681A68A0
:1011AC007B681B6822F010021A6007E07B681B68E2
:1011BC001A687B681B6842F010021A607B681B7F00
:1011CC00012B08D17B681B681A687B681B6842F08E
:1011DC0008021A6007E07B681B681A687B681B684A
:1011EC0022F008021A607B685B7F012B08D17B68B8
:1011FC001B681A687B681B6842F004021A6007E0DF
:10120C007B681B681A687B681B6822F004021A60F2
:10121C007B689A687B68DB681A437B681B691A4396
:10122C007B685B6942EA03017B685B685A1E7B68DA
:10123C001B680A43DA617B6800225A627B680122D0
:10124C0083F82020002318461037BD4680BD80B49B
:10125C0087B000AF786039607B681B687B617B6806
:10126C0093F82030FB74FB7C012B03D0FB7C022B0E
:10127C0040F0AA807B69D3F8003243F001027B690D
:10128C00C3F800223B685B6903F01F03012202FADA
:10129C0003F3FB607B69D3F81C22FB68DB431A4029
:1012AC007B69C3F81C223B68DB69002B23D17B696B
:1012BC00D3F80C22FB68DB431A407B69C3F80C2281
:1012CC003B68DB6819043B685B689BB23A685269FF
:1012DC0019437B69483243F832103B689B68190408
:1012EC003B681B689AB23B685B690A43796948336F
:1012FC00DB000B445A603B68DB69012B22D17B6914
:10130C00D3F80C22FB681A437B69C3F80C223B68A8
:10131C001B6819043B685B689BB23A6852691943B5
:10132C007B69483243F832103B689B6819043B6870
:10133C00DB689AB23B685B690A4379694833DB0026
:10134C000B445A603B689B69002B09D17B69D3F82D
:10135C000422FB68DB431A407B69C3F8042207E0D4
:10136C007B69D3F80422FB681A437B69C3F8042217
:10137C003B681B69002B09D17B69D3F81422FB68ED
:10138C00DB431A407B69C3F8142207E07B69D3F86E
:10139C001422FB681A437B69C3F814223B681B6A4E
:1013AC00012B07D17B69D3F81C22FB681A437B699C
:1013BC00C3F81C227B69D3F8003223F001027B694D
:1013CC00C3F80022002306E07B685B6A43F48022AA
:1013DC007B685A62012318461C37BD4680BC704797
:1013EC0080B584B000AF78607B6893F82030DBB2B6
:1013FC00012B2ED17B68022283F820207B681B688E
:10140C001A687B681B6822F001021A60FFF7F8FD6E
:10141C00F86012E0FFF7F4FD0246FB68D31A0A2BC2
:10142C000BD97B685B6A43F400327B685A627B6839
:10143C00052283F82020012312E07B681B685B687F
:10144C0003F00103002BE5D17B6800225A620023D4
:10145C0006E07B685B6A43F400227B685A620123D6
:10146C0018461037BD4680BD80B489B000AFF86017
:10147C00B9607A603B60FB6893F82030FB77FB68BF
:10148C001B689B68BB61FB7F012B03D0FB7F022B8E
:10149C0040F0AD80BB6903F08063002B0AD1BB69BF
:1014AC0003F00063002B05D1BB6903F08053002BC4
:1014BC0000F09580BB691B0E03F003037B610122D6
:1014CC007B699A403B681A60BB689B68002B0DD106
:1014DC00BB681B685A05BB68DB68F96809681A4366
:1014EC007B6918331B010B441A600FE0BB685B6807
:1014FC00DA00BB689B681A43BB68DB68F96809684B
:10150C001A437B6918331B010B441A60FB6819687A
:10151C00BB681A697B6918331B010B4404331A60CE
:10152C00BB681B7D012B11D1FB681A687B691833D2
:10153C001B01134404331B68FA68116843F480726E
:10154C007B6918331B010B4404331A607B68073327
:10155C001B781A067B6806331B781B041A437B68BE
:10156C0005331B781B0213437A6804321278104639
:10157C00FA68116843EA00027B691B010B4403F50E
:10158C00C6731A607B6803331B781A067B680233B8
:10159C001B781B041A437B6801331B781B02134313
:1015AC007A6812781046FA68116843EA00027B697F
:1015BC001B010B4403F5C4731A60FB681A687B6942
:1015CC0018331B0113441B68FA68116843F00102BD
:1015DC007B6918331B010B441A6000230EE0FB6877
:1015EC005B6A43F40012FB685A62012306E0FB6855
:1015FC005B6A43F48022FB685A6201231846243745
:10160C00BD4680BC704780B485B000AF78600023C5
:10161C00FB607B6893F82030FB72FB7A012B02D0C5
:10162C00FB7A022B1DD17B681B689B6803F08063DF
:10163C00002B02D0FB680133FB607B681B689B6846
:10164C0003F00063002B02D0FB680133FB607B6866
:10165C001B689B6803F08053002B02D0FB6801339E
:10166C00FB60FB6818461437BD4680BC704780B4DD
:10167C0087B000AFF860B9607A603B60FB6893F8A4
:10168C002030FB75FB7D012B03D0FB7D022B40F042
:10169C000381BB68002B0ED1FB681B68DB6803F071
:1016AC000303002B16D1FB685B6A43F40012FB6842
:1016BC005A620123F7E0FB681B681B6903F0030304
:1016CC00002B07D1FB685B6A43F40012FB685A627B
:1016DC000123E8E0FB681A68BB681B331B01134449
:1016EC001B6803F004027B689A607B689B68002B84
:1016FC000CD1FB681A68BB681B331B0113441B68B5
:10170C005B0DC3F30A027B681A600BE0FB681A6876
:10171C00BB681B331B0113441B68DB0823F06042BE
:10172C007B685A60FB681A68BB681B331B01134447
:10173C001B6803F002027B68DA60FB681A68BB68FE
:10174C001B331B01134404331B6803F00F03072BDB
:10175C0003D97B6808221A610BE0FB681A68BB6826
:10176C001B331B01134404331B6803F00F027B680B
:10177C001A61FB681A68BB681B331B0113440433E2
:10178C001B681B0ADAB27B689A61FB681A68BB6833
:10179C001B331B01134404331B681B0C9AB27B686C
:1017AC005A61FB681A68BB681B01134403F5DC73B0
:1017BC001B68DAB23B681A70FB681A68BB681B01BD
:1017CC00134403F5DC731B681A0A3B680133D2B26D
:1017DC001A70FB681A68BB681B01134403F5DC73B1
:1017EC001B681A0C3B680233D2B21A70FB681A6879
:1017FC00BB681B01134403F5DC731B681A0E3B68B2
:10180C000333D2B21A70FB681A68BB681B0113440D
:10181C0003F5DE731A683B680433D2B21A70FB68A6
:10182C001A68BB681B01134403F5DE731B681A0AA4
:10183C003B680533D2B21A70FB681A68BB681B018F
:10184C00134403F5DE731B681A0C3B680633D2B2E3
:10185C001A70FB681A68BB681B01134403F5DE732E
:10186C001B681A0E3B680733D2B21A70BB68002B88
:10187C0008D1FB681B68DA68FB681B6842F0200221
:10188C00DA6007E0FB681B681A69FB681B6842F0AA
:10189C0020021A61002306E0FB685B6A43F4802295
:1018AC00FB685A62012318461C37BD4680BC704742
:1018BC0080B485B000AF786039607B6893F82030D5
:1018CC00FB73FB7B012B02D0FB7B022B09D17B68CA
:1018DC001B6859697B681B683A680A435A61002384
:1018EC0006E07B685B6A43F480227B685A620123C2
:1018FC0018461437BD4680BC704780B58AB000AF1F
:10190C00786000237B627B681B685B693B627B6849
:10191C001B685B68FB617B681B689B68BB617B68B1
:10192C001B68DB687B617B681B681B693B617B68A0
:10193C001B689B69FB603B6A03F00103002B7CD0A6
:10194C00BB6903F00103002B23D07B681B680122C9
:10195C009A60BB6903F00203002B03D0786800F097
:10196C007DF916E0BB6903F00403002B04D07B6AFD
:10197C0043F400637B620CE0BB6903F00803002BAB
:10198C0004D07B6A43F480537B6202E0786800F0F9
:10199C0080F9BB6903F48073002B24D07B681B682F
:1019AC004FF480729A60BB6903F40073002B03D070
:1019BC00786800F05CF916E0BB6903F48063002BD7
:1019CC0004D07B6A43F400537B620CE0BB6903F4E4
:1019DC000063002B04D07B6A43F480437B6202E0FB
:1019EC00786800F05FF9BB6903F48033002B24D0D6
:1019FC007B681B684FF480329A60BB6903F4003338
:101A0C00002B03D0786800F03BF916E0BB6903F4B7
:101A1C008023002B04D07B6A43F400437B620CE0F0
:101A2C00BB6903F40023002B04D07B6A43F480339E
:101A3C007B6202E0786800F03EF93B6A03F0080331
:101A4C00002B0CD07B6903F01003002B07D07B6AB2
:101A5C0043F400737B627B681B681022DA603B6A7C
:101A6C0003F00403002B0BD07B6903F00803002B5D
:101A7C0006D07B681B680822DA60786800F024F9CD
:101A8C003B6A03F00203002B09D07B681B68DB6800
:101A9C0003F00303002B02D07868FEF751FB3B6A7E
:101AAC0003F04003002B0CD03B6903F01003002B18
:101ABC0007D07B6A43F480637B627B681B681022CF
:101ACC001A613B6A03F02003002B0BD03B6903F037
:101ADC000803002B06D07B681B6808221A61786803
:101AEC0000F004F93B6A03F01003002B09D07B686B
:101AFC001B681B6903F00303002B02D0786800F00D
:101B0C00ECF83B6A03F40033002B0BD0FB6903F0B9
:101B1C001003002B06D07B681B6810225A60786873
:101B2C0000F0EDF83B6A03F48033002B0BD0FB691B
:101B3C0003F00803002B06D07B681B6808225A6050
:101B4C00786800F0E5F83B6A03F40043002B75D08D
:101B5C00FB6903F00403002B6CD03B6A03F4807325
:101B6C00002B08D0FB6803F00103002B03D07B6A29
:101B7C0043F001037B623B6A03F40073002B08D033
:101B8C00FB6803F00203002B03D07B6A43F00203D3
:101B9C007B623B6A03F48063002B08D0FB6803F084
:101BAC000403002B03D07B6A43F004037B623B6A83
:101BBC0003F40063002B3DD0FB6803F07003002B93
:101BCC0038D0FB6803F07003302B17D0302B04D8BF
:101BDC00102B09D0202B0CD024E0502B18D0602BCC
:101BEC001BD0402B0FD01DE07B6A43F008037B62B7
:101BFC0018E07B6A43F010037B6213E07B6A43F0CE
:101C0C0020037B620EE07B6A43F040037B6209E0B9
:101C1C007B6A43F080037B6204E07B6A43F480734D
:101C2C007B6200BF7B681B689A697B681B6822F02B
:101C3C0070029A617B681B6804225A607B6A002BD5
:101C4C0008D07B685A6A7B6A1A437B685A62786848
:101C5C0000F067F800BF2837BD4680BD80B483B064
:101C6C0000AF786000BF0C37BD4680BC704780B4B5
:101C7C0083B000AF786000BF0C37BD4680BC7047A6
:101C8C0080B483B000AF786000BF0C37BD4680BC19
:101C9C00704780B483B000AF786000BF0C37BD468E
:101CAC0080BC704780B483B000AF786000BF0C3745
:101CBC00BD4680BC704780B483B000AF786000BF75
:101CCC000C37BD4680BC704780B483B000AF7860E1
:101CDC0000BF0C37BD4680BC704780B483B000AFEA
:101CEC00786000BF0C37BD4680BC704780B483B0B1
:101CFC0000AF786000BF0C37BD4680BC704780B425
:101D0C0083B000AF786000BF0C37BD4680BC704715
:101D1C0080B483B000AF786000BF0C37BD4680BC88
:101D2C00704780B483B000AF786000BF0C37BD46FD
:101D3C0080BC704780B485B000AF78607B6803F0DE
:101D4C000703FB600C4BDB68BB60BA684FF6FF0304
:101D5C001340BB60FB681A02BB68134343F0BF63BC
:101D6C0043F40033BB60044ABB68D36000BF143734
:101D7C00BD4680BC704700BF00ED00E080B400AFF2
:101D8C00044BDB681B0A03F007031846BD4680BCF6
:101D9C00704700BF00ED00E080B483B000AF034695
:101DAC00FB7197F90730002B0BDBFB7903F01F025B
:101DBC00064997F907305B09012000FA02F241F855
:101DCC00232000BF0C37BD4680BC704700E100E00B
:101DDC0080B483B000AF03463960FB7197F90730CC
:101DEC00002B0ADB3B68DAB20C4997F90730120179
:101DFC00D2B20B4483F800230AE03B68DAB20849FC
:101E0C00FB7903F00F03043B1201D2B20B441A7698
:101E1C0000BF0C37BD4680BC704700BF00E100E03E
:101E2C0000ED00E080B489B000AFF860B9607A6072
:101E3C00FB6803F00703FB61FB69C3F10703042B89
:101E4C0028BF0423BB61FB690433062B02D9FB6951
:101E5C00033B00E000237B614FF0FF32BB6902FAC9
:101E6C0003F3DA43BB681A407B699A404FF0FF31A9
:101E7C007B6901FA03F3D9437B680B401343184683
:101E8C002437BD4680BC704780B582B000AF786007
:101E9C007B68013BB3F1807F01D301230FE00A4A39
:101EAC007B68013B53600F214FF0FF30FFF790FF31
:101EBC00054B00229A60044B07221A600023184637
:101ECC000837BD4680BD00BF10E000E080B582B091
:101EDC0000AF78607868FFF72DFF00BF0837BD466C
:101EEC0080BD80B586B000AF0346B9607A60FB73E5
:101EFC0000237B61FFF742FF78617A68B9687869E3
:101F0C00FFF790FF024697F90F3011461846FFF77E
:101F1C005FFF00BF1837BD4680BD80B582B000AFF3
:101F2C000346FB7197F907301846FFF735FF00BFE2
:101F3C000837BD4680BD80B582B000AF7860786848
:101F4C00FFF7A2FF034618460837BD4680BD0000C8
:101F5C0080B48BB000AF7860396000237B620023C3
:101F6C003B6227E101227B6A02FA03F3FB613B68C7
:101F7C001B68FA691340BB61BA69FB699A4240F06D
:101F8C0016813B685B68122B34D0122B0DD8022BB8
:101F9C002BD0022B04D8002B31D0012B1CD048E0C5
:101FAC00032B43D0112B1BD043E0894A934226D0FC
:101FBC00874A934206D8874A934220D0864A934256
:101FCC001DD036E0854A934219D0854A934216D0EB
:101FDC00844A934213D02CE03B68DB683B6228E0D8
:101FEC003B68DB6804333B6223E03B68DB68083307
:101FFC003B621EE03B68DB680C333B6219E03B68DC
:10200C009B68002B02D104233B6212E03B689B6867
:10201C00012B05D108233B627B68FA691A6108E041
:10202C0008233B627B68FA695A6102E000233B6239
:10203C0000BFBB69FF2B01D87B6801E07B680433D0
:10204C007B61BB69FF2B02D87B6A9B0002E07B6A39
:10205C00083B9B003B617B691A680F213B6901FAC5
:10206C0003F3DB431A40396A3B6901FA03F31A4361
:10207C007B691A603B685B6803F08053002B00F0AF
:10208C009680594B9B69584A43F001039361564B18
:10209C009B6903F00103BB60BB68544A7B6A9B08D5
:1020AC00023352F82330FB607B6A03F003039B007E
:1020BC000F2202FA03F3DB43FA681340FB607B68E0
:1020CC004B4A934213D07B684A4A93420DD07B68AB
:1020DC00494A934207D07B68484A934201D1032373
:1020EC0006E0042304E0022302E0012300E00023C5
:1020FC007A6A02F0030292009340FA681343FB6081
:10210C003A497B6A9B080233FA6841F823203B6802
:10211C005B6803F48013002B06D0394B9A6838495E
:10212C00BB6913438B6006E0354B9A68BB69DB4394
:10213C00334913408B603B685B6803F40013002B3E
:10214C0006D02F4BDA682E49BB691343CB6006E0EF
:10215C002B4BDA68BB69DB4329491340CB603B68E6
:10216C005B6803F40033002B06D0254B5A682449D6
:10217C00BB6913434B6006E0214B5A68BB69DB43D8
:10218C001F4913404B603B685B6803F48033002BA2
:10219C0006D01B4B1A681A49BB6913430B6006E047
:1021AC00174B1A68BB69DB43154913400B607B6AFC
:1021BC0001337B623B681A687B6A22FA03F3002BBB
:1021CC007FF4D0AE00BF2C37BD4680BC704700BF3B
:1021DC00000021100000111000001210000031103E
:1021EC0000003210000022100010024000000140DC
:1021FC0000080140000C0140001001400014014097
:10220C000004014080B483B000AF78600B467B8043
:10221C0013467B707B78002B03D07A887B681A611D
:10222C0003E07B881A047B681A6100BF0C37BD463B
:10223C0080BC704780B485B000AF78600B467B8063
:10224C007B68DB68FB607A88FB6813401A04FB68C8
:10225C00D9437B880B401A437B681A6100BF143743
:10226C00BD4680BC7047000080B584B000AF78607C
:10227C007B68002B01D101231FE17B6893F83D3073
:10228C00DBB2002B06D17B68002283F83C207868F7
:10229C00FEF78CFD7B68242283F83D207B681B684D
:1022AC001A687B681B6822F001021A607B681B6845
:1022BC001A687B681B6842F400421A607B681B68D2
:1022CC001A687B681B6822F400421A6001F052F90C
:1022DC00F8607B685B687B4A934207D8FB687A4A54
:1022EC00934294BF01230023DBB206E0FB68774ADC
:1022FC00934294BF01230023DBB2002B01D00123B6
:10230C00DBE0FB68724AA2FB03239B0CBB607B687F
:10231C001B685B6823F03F017B681B68BA680A4343
:10232C005A607B681B681B6A23F03F017B685B6803
:10233C00644A934202D8BB68013309E0BB684FF48E
:10234C00967202FB03F3634AA2FB03239B0901333E
:10235C007A6812680B4313627B681B68DB6923F491
:10236C004F4222F0FF027B685B6856498B420DD8C6
:10237C00FB68591E7B685B685B00B1FBF3F30133B0
:10238C00C3F30B03042B38BF04234FE07B689B681B
:10239C00002B11D1FB68581E7B6859680B465B00FB
:1023AC000B44B0FBF3F30133C3F30B03002B0CBF53
:1023BC0001230023DBB212E0FB68581E7B685968CE
:1023CC000B469B000B4499000B44B0FBF3F3013319
:1023DC00C3F30B03002B0CBF01230023DBB2002B38
:1023EC0001D0012322E07B689B68002B0ED1FB6897
:1023FC00581E7B6859680B465B000B44B0FBF3F32B
:10240C000133C3F30B0343F400430FE0FB68581E86
:10241C007B6859680B469B000B4499000B44B0FB3E
:10242C00F3F30133C3F30B0343F4404379680968B6
:10243C001343CB617B681B681B6823F0C0017B686E
:10244C00DA697B681B6A1A437B681B680A431A604B
:10245C007B681B689B6823F4034323F0FF037A68B3
:10246C0011697A68D26811437A6812680B439360D9
:10247C007B681B68DB6823F0FF017B685A697B680B
:10248C009B691A437B681B680A43DA607B681B688C
:10249C001A687B681B6842F001021A607B68002294
:1024AC001A647B68202283F83D207B6800221A6323
:1024BC007B68002283F83E20002318461037BD4667
:1024CC0080BD00BFA08601007F841E00FF083D0078
:1024DC0083DE1B43D34D621080B588B002AFF86029
:1024EC007A601A460B467B8113463B81FEF788FDCA
:1024FC007861FB6893F83D30DBB2202B40F0E08034
:10250C007B690093192301227049F86800F092FA54
:10251C000346002B01D00223D3E0FB6893F83C3038
:10252C00012B01D10223CCE0FB68012283F83C2073
:10253C00FB681B681B6803F00103012B07D0FB68C9
:10254C001B681A68FB681B6842F001021A60FB6882
:10255C001B681A68FB681B6822F400621A60FB682F
:10256C00212283F83D20FB68102283F83E20FB6873
:10257C0000221A64FB687A685A62FB683A895A85A9
:10258C00FB685B8D9AB2FB681A85FB68504ADA626D
:10259C0079897B693A6AF86800F0CAF90346002B1E
:1025AC0001D001238DE000233B61FB681B685B6954
:1025BC003B61FB681B689B693B613B6966E07A6920
:1025CC00396AF86800F050FB0346002B0DD0FB680D
:1025DC001B6C042B07D1FB681B681A68FB681B6813
:1025EC0042F400721A6001236BE0FB685B6A1A7894
:1025FC00FB681B681A61FB685B6A5A1CFB685A62B1
:10260C00FB685B8D9BB2013B9AB2FB685A85FB68F9
:10261C001B8D013B9AB2FB681A85FB681B685B69D2
:10262C0003F00403042B1BD1FB681B8D002B17D06C
:10263C00FB685B6A1A78FB681B681A61FB685B6A4B
:10264C005A1CFB685A62FB685B8D9BB2013B9AB2C9
:10265C00FB685A85FB681B8D013B9AB2FB681A8597
:10266C007A69396AF86800F047FB0346002B0DD0F5
:10267C00FB681B6C042B07D1FB681B681A68FB6892
:10268C001B6842F400721A6001231AE0FB681B8D70
:10269C00002B94D1FB681B681A68FB681B6842F41A
:1026AC0000721A60FB68202283F83D20FB68002230
:1026BC0083F83E20FB68002283F83C20002300E0D6
:1026CC00022318461837BD4680BD00BF020010001B
:1026DC000000FFFF80B58AB002AFF8607A603B6003
:1026EC000B467B81FEF78CFCF8610023BB61FB6819
:1026FC0093F83D30DBB2202B40F01181FB69009345
:10270C00192301228849F86800F094F90346002B3C
:10271C0001D0022304E1FB6893F83C30012B01D17A
:10272C000223FDE0FB68012283F83C20FB681B6858
:10273C001B6803F00103012B07D0FB681B681A68A8
:10274C00FB681B6842F001021A60FB681B681A6880
:10275C00FB681B6822F400621A60FB68242283F871
:10276C003D20FB6800221A64FB68704ADA62FB6841
:10277C001B681A68FB681B6842F480721A60FB695C
:10278C0000933B6800224FF00111F86800F052F9F9
:10279C000346002B0DD0FB681B681B6803F4807389
:1027AC00B3F5807F03D1FB684FF400721A640323E6
:1027BC00B6E07B89DBB21A46FB681B6802F0FE02AE
:1027CC001A61FEF71DFCF861FB681B685B6903F07E
:1027DC000203022B0CBF01230023DBB2FB75FB6849
:1027EC001B685B6903F48063B3F5806F0CBF012336
:1027FC000023DBB2BB7525E0FEF702FC0246FB6949
:10280C00D31A3A689A4202D33B68002B03D1FB6877
:10281C00A02283F83D20FB681B685B6903F0020370
:10282C00022B0CBF01230023DBB2FB75FB681B687A
:10283C005B6903F48063B3F5806F0CBF0123002345
:10284C00DBB2BB75FB6893F83D30DBB2A02B05D037
:10285C00FB7D002B02D1BB7D002BCDD0FB68202251
:10286C0083F83D20FB681B685B6903F00203022BB5
:10287C0029D1FB681B681A68FB681B6842F400725C
:10288C001A6000233B61FB681B685B693B61FB685A
:10289C001B689B693B613B69FB690093192301220F
:1028AC002149F86800F0C6F80346002B01D001233B
:1028BC0036E0FB68202283F83D20FB68002283F879
:1028CC003C2000232CE0FB681B681A68FB681B6823
:1028DC0042F400721A60FB681B686FF480625A61E4
:1028EC00FB690093192301220F49F86800F0A2F844
:1028FC000346002B01D0012312E0BB690133BB61FD
:10290C00BA697B689A42FFF432AFFB68202283F8E5
:10291C003D20FB68002283F83C20012300E00223C9
:10292C0018462037BD4680BD020010000000FFFF96
:10293C0080B588B002AFF8607A603B600B467B8153
:10294C00FB68DB6A7B617B69082B06D07B69012BFA
:10295C0003D07B6913F5803F08D1FB681B681A68AC
:10296C00FB681B6842F480721A600BE0FB681B6BFF
:10297C00122B07D1FB681B681A68FB681B6842F4B2
:10298C0080721A603B6800937B6800224FF0011143
:10299C00F86800F04FF80346002B0DD0FB681B685D
:1029AC001B6803F48073B3F5807F03D1FB684FF48D
:1029BC0000721A64032335E0FB681B69B3F5804F82
:1029CC0008D17B89DBB21A46FB681B6802F0FE0259
:1029DC001A611BE07B89DB11DBB203F00603DBB26F
:1029EC0063F00F03DAB2FB681B681A613B687A6804
:1029FC000E49F86800F098F80346002B01D001232B
:102A0C0010E07B89DAB2FB681B681A613B687A6854
:102A1C000749F86800F088F80346002B01D0012321
:102A2C0000E0002318461837BD4680BD08000100A1
:102A3C000200010080B584B000AFF860B9603B6063
:102A4C001346FB7148E03B68B3F1FF3F44D0FEF7FF
:102A5C00D7FA0246BB69D31A3A689A4202D33B684A
:102A6C00002B39D1BB681B0CDBB2012B0DD1FB68E1
:102A7C001B685B69DA43BB6813409BB2002B0CBF2D
:102A8C0001230023DBB21A460CE0FB681B689B6930
:102A9C00DA43BB6813409BB2002B0CBF012300230D
:102AAC00DBB21A46FB799A4216D1FB6800221A63F4
:102ABC00FB68202283F83D20FB68002283F83E202F
:102ACC00FB681B6C43F02002FB681A64FB68002255
:102ADC0083F83C20012323E0BB681B0CDBB2012BE9
:102AEC000DD1FB681B685B69DA43BB6813409BB272
:102AFC00002B0CBF01230023DBB21A460CE0FB6851
:102B0C001B689B69DA43BB6813409BB2002B0CBF5C
:102B1C0001230023DBB21A46FB799A4293D000239F
:102B2C0018461037BD4680BD80B584B000AFF86044
:102B3C00B9607A603B6071E0FB681B685B6903F409
:102B4C008063B3F5806F23D1FB681B681A68FB6840
:102B5C001B6842F400721A60FB681B686FF4806299
:102B6C005A61FB6800221A63FB68202283F83D201F
:102B7C00FB68002283F83E20FB681B6C43F00402C8
:102B8C00FB681A64FB68002283F83C20012367E091
:102B9C007B68B3F1FF3F41D0FEF732FA02463B6847
:102BAC00D31A7A689A4202D37B68002B36D1BB6861
:102BBC001B0CDBB2012B0CD1FB681B685B69DA4385
:102BCC00BB6813409BB2002B14BF01230023DBB264
:102BDC000BE0FB681B689B69DA43BB6813409BB234
:102BEC00002B14BF01230023DBB2002B16D0FB6893
:102BFC0000221A63FB68202283F83D20FB68002228
:102C0C0083F83E20FB681B6C43F02002FB681A64BF
:102C1C00FB68002283F83C20012321E0BB681B0CDD
:102C2C00DBB2012B0CD1FB681B685B69DA43BB6818
:102C3C0013409BB2002B14BF01230023DBB20BE02B
:102C4C00FB681B689B69DA43BB6813409BB2002B83
:102C5C0014BF01230023DBB2002B7FF46DAF0023E4
:102C6C0018461037BD4680BD80B584B000AFF86003
:102C7C00B9607A6034E0F86800F086F80346002BFF
:102C8C0001D0012334E0BB68B3F1FF3F28D0FEF73D
:102C9C00B7F902467B68D31ABA689A4202D3BB686A
:102CAC00002B1DD1FB681B685B6903F08003802B34
:102CBC0016D0FB6800221A63FB68202283F83D20A3
:102CCC00FB68002283F83E20FB681B6C43F020025B
:102CDC00FB681A64FB68002283F83C20012307E0A0
:102CEC00FB681B685B6903F08003802BC3D1002356
:102CFC0018461037BD4680BD80B584B000AFF86073
:102D0C00B9607A6034E0F86800F03EF80346002BB6
:102D1C0001D0012334E0BB68B3F1FF3F28D0FEF7AC
:102D2C006FF902467B68D31ABA689A4202D3BB6821
:102D3C00002B1DD1FB681B685B6903F00403042B9B
:102D4C0016D0FB6800221A63FB68202283F83D2012
:102D5C00FB68002283F83E20FB681B6C43F02002CA
:102D6C00FB681A64FB68002283F83C20012307E00F
:102D7C00FB681B685B6903F00403042BC3D10023BD
:102D8C0018461037BD4680BD80B483B000AF786064
:102D9C007B681B685B6903F48063B3F5806F1BD1A0
:102DAC007B681B686FF480625A617B6800221A632F
:102DBC007B68202283F83D207B68002283F83E202C
:102DCC007B681B6C43F004027B681A647B680022EE
:102DDC0083F83C20012300E0002318460C37BD4645
:102DEC0080BC704780B586B000AF78607B68002BE4
:102DFC0001D101236CE27B681B6803F00103002BFB
:102E0C0000F08780924B5B6803F00C03042B0CD012
:102E1C008F4B5B6803F00C03082B12D18C4B5B6857
:102E2C0003F48033B3F5803F0BD1894B1B6803F45B
:102E3C000033002B6CD07B685B68002B68D10123BE
:102E4C0046E27B685B68B3F5803F06D1804B1B681C
:102E5C007F4A43F4803313602EE07B685B68002B61
:102E6C000CD17B4B1B687A4A23F480331360784B6C
:102E7C001B68774A23F4802313601DE07B685B6832
:102E8C00B3F5A02F0CD1724B1B68714A43F480230D
:102E9C0013606F4B1B686E4A43F4803313600BE076
:102EAC006B4B1B686A4A23F480331360684B1B68B6
:102EBC00674A23F4802313607B685B68002B13D074
:102ECC00FEF79EF8386108E0FEF79AF802463B6977
:102EDC00D31A642B01D90323FAE15D4B1B6803F46D
:102EEC000033002BF0D014E0FEF78AF8386108E0CC
:102EFC00FEF786F802463B69D31A642B01D90323EB
:102F0C00E6E1534B1B6803F40033002BF0D100E0D7
:102F1C0000BF7B681B6803F00203002B63D04C4B93
:102F2C005B6803F00C03002B0BD0494B5B6803F080
:102F3C000C03082B1CD1464B5B6803F48033002B2D
:102F4C0016D1434B1B6803F00203002B05D07B68A2
:102F5C001B69012B01D00123BAE13D4B1B6823F007
:102F6C00F8027B685B69DB00394913430B603AE07C
:102F7C007B681B69002B20D0364B01221A60FEF7B0
:102F8C003FF8386108E0FEF73BF802463B69D31A7C
:102F9C00022B01D903239BE12D4B1B6803F0020389
:102FAC00002BF0D02A4B1B6823F0F8027B685B697E
:102FBC00DB00274913430B6015E0264B00221A60F7
:102FCC00FEF71EF8386108E0FEF71AF802463B6976
:102FDC00D31A022B01D903237AE11D4B1B6803F092
:102FEC000203002BF0D17B681B6803F00803002B55
:102FFC003AD07B689B69002B19D0174B01221A60C1
:10300C00FDF7FEFF386108E0FDF7FAFF02463B6969
:10301C00D31A022B01D903235AE10D4B5B6A03F03F
:10302C000203002BF0D0012000F0B8FA1CE00A4B90
:10303C0000221A60FDF7E4FF38610FE0FDF7E0FFB6
:10304C0002463B69D31A022B08D9032340E100BF87
:10305C000010024000004242800442429E4B5B6AD8
:10306C0003F00203002BE9D17B681B6803F0040317
:10307C00002B00F0A6800023FB75974BDB6903F057
:10308C008053002B0DD1944BDB69934A43F0805352
:10309C00D361914BDB6903F08053BB60BB680123A8
:1030AC00FB758E4B1B6803F48073002B18D18B4B74
:1030BC001B688A4A43F480731360FDF7A1FF3861E3
:1030CC0008E0FDF79DFF02463B69D31A642B01D93A
:1030DC000323FDE0814B1B6803F48073002BF0D0BD
:1030EC007B68DB68012B06D17B4B1B6A7A4A43F069
:1030FC00010313622DE07B68DB68002B0CD1764B4F
:10310C001B6A754A23F001031362734B1B6A724AE4
:10311C0023F0040313621CE07B68DB68052B0CD1E5
:10312C006D4B1B6A6C4A43F0040313626A4B1B6AB7
:10313C00694A43F0010313620BE0674B1B6A664A52
:10314C0023F001031362644B1B6A634A23F00403EC
:10315C0013627B68DB68002B15D0FDF751FF3861DB
:10316C000AE0FDF74DFF02463B69D31A41F2883263
:10317C00934201D90323ABE0574B1B6A03F00203C4
:10318C00002BEED014E0FDF73BFF38610AE0FDF7B1
:10319C0037FF02463B69D31A41F28832934201D978
:1031AC00032395E04C4B1B6A03F00203002BEED17A
:1031BC00FB7D012B05D1484BDB69474A23F080533B
:1031CC00D3617B68DB69002B00F08180424B5B682C
:1031DC0003F00C03082B61D07B68DB69022B46D112
:1031EC003F4B00221A60FDF70BFF386108E0FDF73A
:1031FC0007FF02463B69D31A022B01D9032367E070
:10320C00354B1B6803F00073002BF0D17B681B6AF5
:10321C00B3F5803F08D1304B5B6823F400327B68F8
:10322C009B682D4913434B602B4B5B6823F4741242
:10323C007B68196A7B685B6A0B43274913434B60B5
:10324C00274B01221A60FDF7DBFE386108E0FDF721
:10325C00D7FE02463B69D31A022B01D9032337E070
:10326C001D4B1B6803F00073002BF0D02FE01C4BA0
:10327C0000221A60FDF7C4FE386108E0FDF7C0FEBD
:10328C0002463B69D31A022B01D9032320E0124BCF
:10329C001B6803F00073002BF0D118E07B68DB692E
:1032AC00012B01D1012313E00B4B5B68FB60FB6826
:1032BC0003F480327B681B6A9A4206D1FB6803F4E4
:1032CC0070127B685B6A9A4201D0012300E00023F4
:1032DC0018461837BD4680BD0010024000700040F3
:1032EC006000424280B584B000AF786039607B6882
:1032FC00002B01D10123D0E06A4B1B6803F00703BC
:10330C003A689A4210D9674B1B6823F0070265494B
:10331C003B6813430B60634B1B6803F007033A686D
:10332C009A4201D00123B8E07B681B6803F00203CA
:10333C00002B20D07B681B6803F00403002B05D006
:10334C00594B5B68584A43F4E06353607B681B68D5
:10335C0003F00803002B05D0534B5B68524A43F42F
:10336C0060535360504B5B6823F0F0027B689B68A2
:10337C004D4913434B607B681B6803F00103002B22
:10338C0040D07B685B68012B07D1474B1B6803F46B
:10339C000033002B15D101237FE07B685B68022B87
:1033AC0007D1414B1B6803F00073002B09D101239B
:1033BC0073E03D4B1B6803F00203002B01D101238A
:1033CC006BE0394B5B6823F003027B685B68364922
:1033DC0013434B60FDF714FEF8600AE0FDF710FE96
:1033EC000246FB68D31A41F28832934201D9032377
:1033FC0053E02D4B5B6803F00C027B685B689B0011
:10340C009A42EBD1274B1B6803F007033A689A42A8
:10341C0010D2244B1B6823F0070222493B6813434C
:10342C000B60204B1B6803F007033A689A4201D0EB
:10343C00012332E07B681B6803F00403002B08D0E7
:10344C00194B5B6823F4E0627B68DB681649134315
:10345C004B607B681B6803F00803002B09D0124BF0
:10346C005B6823F460527B681B69DB000E491343D5
:10347C004B6000F021F801460B4B5B681B0903F015
:10348C000F030A4AD35C21FA03F3094A1360094B70
:10349C001B681846FDF772FD002318461037BD4611
:1034AC0080BD00BF00200240001002403C5E0008BE
:1034BC00080000200C00002080B487B000AF00236F
:1034CC00FB600023BB6000237B6100237B60002337
:1034DC003B611E4B5B68FB60FB6803F00C03042B29
:1034EC0002D0082B03D027E0194B3B6127E0FB6887
:1034FC009B0C03F00F03174AD35C7B60FB6803F44F
:10350C008033002B10D0114B5B685B0C03F0010374
:10351C00114AD35CBB607B680D4A02FB03F2BB68AB
:10352C00B2FBF3F37B6104E07B680C4A02FB03F310
:10353C007B617B693B6102E0054B3B6100BF3B69F2
:10354C0018461C37BD4680BC704700BF00100240B7
:10355C0000127A00545E0008645E000800093D0009
:10356C0080B400AF024B1B681846BD4680BC704748
:10357C000800002080B500AFFFF7F2FF0146054BB5
:10358C005B681B0A03F00703034AD35C21FA03F3BD
:10359C00184680BD001002404C5E000880B485B017
:1035AC0000AF78600A4B1B680A4AA2FB03235B0A34
:1035BC007A6802FB03F3FB6000BFFB685A1EFA60DB
:1035CC00002BF9D100BF1437BD4680BC704700BF3B
:1035DC0008000020D34D6210014B1868704700BFE3
:1035EC001400002070B500250C4E0D4CA41BA4102B
:1035FC00A54209D100F034FC00250A4E0A4CA41B4C
:10360C00A410A54205D170BD56F825309847013558
:10361C00EEE756F8253098470135F2E79C5E000836
:10362C009C5E00089C5E0008A05E000803460244F5
:10363C00934200D1704703F8011BF9E700B59BB02A
:10364C00009104916FF0004105910291054903919D
:10365C00694600F06DF80022009B1A701BB05DF8F3
:10366C0004FB00BF0802FFFF13460A46014602484E
:10367C000068FFF7E3BF00BF140000202DE9F047FE
:10368C008E6882469E420C469046994637D88A8967
:10369C0012F4906F31D00223256809696F1A65699D
:1036AC0005EB450595FBF3F509F101033B449D4200
:1036BC0038BF1D46530530D5294600F037FB06466A
:1036CC0050B90C234FF0FF30CAF80030A38943F0F7
:1036DC004003A381BDE8F0873A46216900F0B6FAB1
:1036EC00A38923F4906343F08003A38126613E44B5
:1036FC0026604E466561ED1BA5604E4500D94E46D1
:10370C0032464146206800F0ACFAA36800209B1BAF
:10371C00A36023681E442660DCE72A4600F060FBA9
:10372C0006460028E2D12169504600F0B3FAC8E7FA
:10373C002DE9F04F1D468B899DB01F0680460C4627
:10374C0016460FD50B696BB9402100F0EFFA2060DB
:10375C00206128B90C23C8F800304FF0FF30C8E0C6
:10376C00402363610023099320238DF829303023F3
:10377C004FF0010B8DF82A30039537463D4615F86E
:10378C00013B0BB1252B3ED1B7EB060A0BD05346B0
:10379C00324621464046FFF771FF013000F0A4800D
:1037AC00099B534409933B78002B00F09D80002328
:1037BC004FF0FF32CDE90523049307938DF8533076
:1037CC001A932F46052217F8011B504800F030FAC7
:1037DC00049BD0B9D90644BF20228DF853201A0778
:1037EC0044BF2B228DF853202A782A2A15D02F4635
:1037FC0000200A25079A394611F8013B303B092B6A
:10380C004DD9B8B10FE02F46B8E7404A3D46801A73
:10381C000BFA00F018430490D3E7039A111D1268B9
:10382C000391002A01DB079204E0524243F00203A9
:10383C00079204933B782E2B0CD17B782A2B33D117
:10384C00039B02371A1D1B680392002BB8BF4FF065
:10385C00FF3305932E4D03223978284600F0E8F902
:10386C0038B14023401B03FA00F0049B013703439B
:10387C0004933978062227487E1C8DF8281000F016
:10388C00D7F9002838D0244B13BB039B073323F004
:10389C00070308330393099B4B4409936DE705FB1E
:1038AC00023201200F46A6E700230A2519460137EC
:1038BC000593384610F8012B303A092A03D9002B0E
:1038CC00C8D00591C6E705FB012101230746F0E7A7
:1038DC0003AB00932246114B04A94046AFF3008082
:1038EC00B0F1FF3F8146D6D1A3895B063FF535AFDA
:1038FC0009981DB0BDE8F08F03AB00932246074B2F
:10390C0004A9404600F082F8EAE700BF665E0008B2
:10391C006C5E0008705E000800000000893600082C
:10392C002DE9F04791461F468A680B69064693427B
:10393C00B8BF1346C9F8003091F843200C46DDF8A7
:10394C00208012B10133C9F800302368990642BFB8
:10395C00D9F800300233C9F80030256815F0060597
:10396C0007D104F1190AE368D9F800209B1AAB427D
:10397C0029DC94F843302268003318BF01239206E7
:10398C002ED404F1430239463046C047013021D0D1
:10399C002368E56803F00603042B18BF0025D9F84B
:1039AC0000204FF0000908BFAD1AA368226908BFB8
:1039BC0025EAE5759342C4BF9B1AED181A344D45A0
:1039CC001AD1002008E00123524639463046C04740
:1039DC00013003D14FF0FF30BDE8F0870135C2E76D
:1039EC003020E11881F843005A1C94F84510224409
:1039FC00023382F84310C4E701232246394630468D
:103A0C00C0470130E6D009F10109D8E72DE9F043B0
:103A1C0001F1430C0C46097E85B06E29174606460B
:103A2C0098460C9A00F0B38022D8632936D00AD875
:103A3C00002900F0B980582900F0838004F1420578
:103A4C0084F8421032E0642901D06929F6D120684B
:103A5C001368050603F104012AD51B681160002BBD
:103A6C0003DA2D225B4284F843206F480A2239E0A6
:103A7C00732900F09D8008D86F2920D07029DDD1E2
:103A8C00236843F02003236003E0752917D07829BD
:103A9C00D4D17823654884F8453055E0136804F197
:103AAC004205191D1B68116084F8423001238CE01B
:103ABC001B6810F0400F116018BF1BB2CFE71368E2
:103ACC002568181D1060280601D51B6802E06806E1
:103ADC00FBD51B886F2914BF0A22082252480021EB
:103AEC0084F843106568002DA560C0F295802168AC
:103AFC0021F004012160002B3DD1002D40F08E807F
:103B0C006546082A0BD12368DB0708D52369626850
:103B1C009A42DEBF302305F8013C05F1FF35ACEBD2
:103B2C0005032361CDF800803B4603AA21463046AD
:103B3C00FFF7F6FE01304DD14FF0FF3005B0BDE878
:103B4C00F083394884F84510136821681D1D1B68E3
:103B5C0015600A060BD5CA0744BF41F0200121604D
:103B6C001BB9226822F0200222601022B7E74D0612
:103B7C0048BF9BB2EFE76546B3FBF2F102FB113392
:103B8C00C35C05F8013D0B460029F5D1B9E7136874
:103B9C002568181D6169106028061B6801D519601D
:103BAC0002E06A06FBD51980002365462361B9E75C
:103BBC001368191D11601D6862680021284600F009
:103BCC0037F808B1401B606063682361002384F8F8
:103BDC004330A7E723692A4639463046C0470130AF
:103BEC00AAD023689B0713D4E068039B9842B8BF04
:103BFC001846A3E701234A4639463046C0470130F0
:103C0C009AD00135E368039A9B1AAB42F2DCEBE7DE
:103C1C00002504F11909F5E7002BACD1037804F168
:103C2C00420584F842306CE7775E0008885E000835
:103C3C0010B5C9B202449042034601D1002303E0FF
:103C4C001C7801308C42F6D1184610BD10B5431EBD
:103C5C000A44914200D110BD11F8014B03F8014FF9
:103C6C00F7E7884210B501EB020307D8421E9942D0
:103C7C000AD011F8014B02F8014FF8E78342F5D94D
:103C8C008118D21AD34200D110BD13F8014D01F89E
:103C9C00014DF7E738B50546002943D051F8043CEF
:103CAC000C1F002BB8BFE41800F0D0F81E4A1368A4
:103CBC00104633B9636014602846BDE8384000F004
:103CCC00C6B8A3420BD921686218934201BF1A6887
:103CDC005B685218226063600460EDE713465A6813
:103CEC000AB1A242FAD919685818A0420BD120681F
:103CFC000144581882421960DED1106852680144A0
:103D0C0019605A60D8E702D90C232B60D4E72068DD
:103D1C0021188A4201BF116852680918216062603B
:103D2C005C60C9E738BD00BFA404002070B5CD1C91
:103D3C0025F0030508350C2D38BF0C25002D064643
:103D4C0001DBA94203D90C233360002070BD00F0C5
:103D5C007DF8214A1468214691B9204C23681BB97F
:103D6C00304600F063F820602946304600F05EF8DB
:103D7C00431C24D10C233046336000F068F8E4E790
:103D8C000B685B1B18D40B2B0FD90B60CC18CD50C8
:103D9C00304600F05CF804F10B00231D20F0070006
:103DAC00C31AD3D05A42E250D0E74B688C4216BFAC
:103DBC00636013600C46EBE70C464968CCE7C41C07
:103DCC0024F00304A04205D0211A304600F02EF84E
:103DDC000130CFD02560DBE7A4040020A80400202C
:103DEC00F8B5074614460E4621B9BDE8F840114611
:103DFC00FFF79CBF22B9FFF74DFF25462846F8BDBB
:103E0C0000F026F8A0420FD221463846FFF78EFF6D
:103E1C0005460028F2D031462246FFF717FF3146FF
:103E2C003846FFF737FFE9E73546E7E738B50023B3
:103E3C00054C054608462360FDF728F8431C02D1C3
:103E4C00236803B12B6038BDA40500207047704770
:103E5C0051F8043C181F002BBCBF0B58C0187047FE
:103E6C00F8B500BFF8BC08BC9E467047F8B500BF5B
:083E7C00F8BC08BC9E4670472B
:103E8400434845434B555044000000004F4B5550A8
:103E940044415445000000005550445453495A4588
:103EA4000000000053544152545550440000000097
:103EB4005445535420454D45000000000050002057
:103EC400251F0008C91E0008CF1E0008D51E0008C3
:103ED400DB1E0008E11E00080000000000000000D6
:103EE4000000000000000000E71E0008F31E0008A8
:103EF40000000000FF1E00080B1F00086D1F0008D3
:103F04006D1F00086D1F00086D1F00086D1F00085D
:103F14006D1F00086D1F00086D1F00086D1F00084D
:103F24006D1F00086D1F00086D1F00086D1F00083D
:103F34006D1F00086D1F00086D1F00086D1F00082D
:103F44006D1F00086D1F00086D1F00086D1F00081D
:103F54006D1F00086D1F00086D1F00086D1F00080D
:103F64006D1F00086D1F00086D1F00086D1F0008FD
:103F74006D1F00086D1F00086D1F00086D1F0008ED
:103F84006D1F00086D1F00086D1F00086D1F0008DD
:103F94006D1F00086D1F00086D1F00086D1F0008CD
:103FA4006D1F00086D1F00080000000000000000E5
:103FB40000000000000000000000000000000000FD
:103FC400000000005FF808F110B5054C237833B900
:103FD400044B13B10448AFF300800123237010BDD8
:103FE4000C00002000000000C42D000808B5034B9D
:103FF4001BB103490348AFF3008008BD0000000073
:1040040010000020C42D000880B500AF4FF400510B
:10401400044800F011FC4FF47A7000F069F900BF15
:1040240080BD00BF0010014080B500AF00F0FEF875
:1040340000F005F800F03EF8FFF7E6FFFCE780B576
:1040440090B000AF07F1180328220021184600F0B1
:10405400EBFF3B1D00221A605A609A60DA601A6115
:104064000223BB610123BB621023FB6200237B6339
:1040740007F11803184600F0F9FB0346002B01D0A2
:1040840000F058F80F237B600023BB600023FB6023
:1040940000233B6100237B613B1D0021184600F097
:1040A40067FE0346002B01D000F044F800BF403700
:1040B400BD4680BD80B586B000AF07F1080300227D
:1040C4001A605A609A60DA60184B9B69174A43F089
:1040D40010039361154B9B6903F010037B607B68AD
:1040E400124B9B69114A43F0200393610F4B9B6968
:1040F40003F020033B603B6800224FF400510C485E
:1041040000F082FB4FF40053BB600123FB600023EB
:104114003B6102237B6107F108031946044800F060
:10412400EFF900BF1837BD4680BD00BF0010024044
:104134000010014080B400AF72B600BFFEE700007B
:1041440080B483B000AF0E4B9B690D4A43F001036A
:1041540093610B4B9B6903F001037B607B68084B05
:10416400DB69074A43F08053D361054BDB6903F0F5
:1041740080533B603B6800BF0C37BD4680BC704732
:104184000010024080B400AFFEE780B400AFFEE749
:1041940080B400AFFEE780B400AFFEE780B400AFA8
:1041A400FEE780B400AF00BFBD4680BC704780B45A
:1041B40000AF00BFBD4680BC704780B400AF00BFF5
:1041C400BD4680BC704780B500AF00F075F800BFF5
:1041D40080BD80B400AF00BFBD4680BC7047000006
:1041E400FFF7F7FF0B480C490C4A002302E0D458B0
:1041F400C4500433C4188C42F9D3094A094C00232F
:1042040001E013600432A242FBD300F015FFFFF774
:104214000BFF7047000000200C000020082E00084F
:104224000C0000202C000020FEE7000080B500AF49
:10423400084B1B68074A43F010031360032000F087
:104244002BF90F2000F008F8FFF77AFF0023184637
:1042540080BD00BF0020024080B582B000AF78600E
:10426400124B1A68124B1B7819464FF47A73B3FB3E
:10427400F1F3B2FBF3F3184600F035F90346002BD3
:1042840001D001230EE07B680F2B0AD80022796845
:104294004FF0FF3000F00BF9064A7B6813600023EF
:1042A40000E0012318460837BD4680BD0000002009
:1042B400080000200400002080B400AF054B1B78E8
:1042C4001A46054B1B681344034A136000BFBD46DE
:1042D40080BC7047080000202800002080B400AF94
:1042E400024B1B681846BD4680BC7047280000205E
:1042F40080B584B000AF7860FFF7F0FFB8607B68EA
:10430400FB60FB68B3F1FF3F05D00A4B1B781A46EC
:10431400FB681344FB6000BFFFF7E0FF0246BB6885
:10432400D31AFA689A42F7D800BF00BF1037BD46C7
:1043340080BD00BF0800002080B485B000AF786065
:104344007B6803F00703FB600C4BDB68BB60BA6857
:104354004FF6FF031340BB60FB681A02BB681343AC
:1043640043F0BF6343F40033BB60044ABB68D360CB
:1043740000BF1437BD4680BC704700BF00ED00E0AD
:1043840080B400AF044BDB681B0A03F00703184634
:10439400BD4680BC704700BF00ED00E080B483B030
:1043A40000AF03463960FB7197F90730002B0ADB35
:1043B4003B68DAB20C4997F907301201D2B20B44C8
:1043C40083F800230AE03B68DAB20849FB7903F07A
:1043D4000F03043B1201D2B20B441A7600BF0C3710
:1043E400BD4680BC704700BF00E100E000ED00E086
:1043F40080B489B000AFF860B9607A60FB6803F0FC
:104404000703FB61FB69C3F10703042B28BF0423E3
:10441400BB61FB690433062B02D9FB69033B00E053
:1044240000237B614FF0FF32BB6902FA03F3DA43E6
:10443400BB681A407B699A404FF0FF317B6901FAEF
:1044440003F3D9437B680B40134318462437BD4616
:1044540080BC704780B582B000AF78607B68013B58
:10446400B3F1807F01D301230FE00A4A7B68013B4B
:1044740053600F214FF0FF30FFF790FF054B0022F0
:104484009A60044B07221A60002318460837BD4679
:1044940080BD00BF10E000E080B582B000AF78605E
:1044A4007868FFF749FF00BF0837BD4680BD80B577
:1044B40086B000AF0346B9607A60FB7300237B616A
:1044C400FFF75EFF78617A68B9687869FFF790FF53
:1044D400024697F90F3011461846FFF75FFF00BFF9
:1044E4001837BD4680BD80B582B000AF786078686B
:1044F400FFF7B0FF034618460837BD4680BD0000ED
:1045040080B48BB000AF7860396000237B620023F5
:104514003B6269E101227B6A02FA03F3FB613B68B7
:104524001B68FA691340BB61BA69FB699A4240F09F
:1045340058813B685B689A4A93425ED0984A93429A
:1045440075D8984A934258D0964A93426FD8964A5F
:10455400934252D0944A934269D8944A93424CD09D
:10456400924A934263D8924A934246D0904A9342E5
:104574005DD8122B2AD8122B59D801A252F823F055
:104584003F230008192300082B2300086D2300088B
:10459400732300087323000873230008732300089F
:1045A400732300087323000873230008732300088F
:1045B400732300087323000873230008732300087F
:1045C400732300082123000835230008794A934205
:1045D40013D02CE03B68DB683B6229E03B68DB6876
:1045E40004333B6224E03B68DB6808333B621FE032
:1045F4003B68DB680C333B621AE03B689B68002B2A
:1046040002D104233B6213E03B689B68012B05D174
:1046140008233B627B68FA691A6109E008233B625C
:104624007B68FA695A6103E000233B6200E000BF43
:10463400BB69FF2B01D87B6801E07B6804337B6195
:10464400BB69FF2B02D87B6A9B0002E07B6A083BB4
:104654009B003B617B691A680F213B6901FA03F3F4
:10466400DB431A40396A3B6901FA03F31A437B6955
:104674001A603B685B6803F08053002B00F0B18044
:104684004D4B9B694C4A43F0010393614A4B9B6930
:1046940003F00103BB60BB68484A7B6A9B08023392
:1046A40052F82330FB607B6A03F003039B000F2264
:1046B40002FA03F3DB43FA681340FB607B68404A69
:1046C400934213D07B683F4A93420DD07B683E4AA5
:1046D400934207D07B683D4A934201D1032306E00D
:1046E400042304E0022302E0012300E000237A6AA9
:1046F40002F0030292009340FA681343FB602F49CF
:104704007B6A9B080233FA6841F823203B685B68A4
:1047140003F48013002B06D02D4B9A682C49BB69F7
:1047240013438B6006E02A4B9A68BB69DB43284934
:1047340013408B603B685B6803F40013002B06D0C6
:10474400234BDA682249BB691343CB6006E0204B54
:10475400DA68BB69DB431E491340CB603B685B6886
:1047640003F40033002B06D0194B5A681849BB696F
:1047740013434B6006E0164B5A68BB69DB4314498C
:1047840013404B603B685B6803F48033002B21D0FB
:104794000F4B1A680E49BB6913430B6021E000BF3D
:1047A400000032100000311000002210000021101F
:1047B400000012100000111000100240000001401F
:1047C40000080140000C01400010014000140140A9
:1047D400000401400B4B1A68BB69DB4309491340D1
:1047E4000B607B6A01337B623B681A687B6A22FA3E
:1047F40003F3002B7FF48EAE00BF00BF2C37BD4601
:1048040080BC70470004014080B483B000AF78607E
:104814000B467B8013467B707B78002B03D07A8811
:104824007B681A6103E07B881A047B681A6100BF05
:104834000C37BD4680BC704780B485B000AF78604B
:104844000B467B807B68DB68FB607A88FB681340DF
:104854001A04FB68D9437B880B401A437B681A61AE
:1048640000BF1437BD4680BC7047000080B586B0D9
:1048740000AF78607B68002B01D1012372E27B6872
:104884001B6803F00103002B00F08780924B5B68E8
:1048940003F00C03042B0CD08F4B5B6803F00C0368
:1048A400082B12D18C4B5B6803F48033B3F5803F43
:1048B4000BD1894B1B6803F40033002B6CD07B684D
:1048C4005B68002B68D101234CE27B685B68B3F51D
:1048D400803F06D1804B1B687F4A43F480331360CA
:1048E4002EE07B685B68002B0CD17B4B1B687A4AFB
:1048F40023F480331360784B1B68774A23F48023B6
:1049040013601DE07B685B68B3F5A02F0CD1724B7C
:104914001B68714A43F4802313606F4B1B686E4A13
:1049240043F4803313600BE06B4B1B686A4A23F437
:1049340080331360684B1B68674A23F48023136039
:104944007B685B68002B13D0FFF7C8FC386108E074
:10495400FFF7C4FC02463B69D31A642B01D9032335
:1049640000E25D4B1B6803F40033002BF0D014E02D
:10497400FFF7B4FC386108E0FFF7B0FC02463B697E
:10498400D31A642B01D90323ECE1534B1B6803F4C2
:104994000033002BF0D100E000BF7B681B6803F0FC
:1049A4000203002B63D04C4B5B6803F00C03002B19
:1049B4000BD0494B5B6803F00C03082B1CD1464B0E
:1049C4005B6803F48033002B16D1434B1B6803F060
:1049D4000203002B05D07B681B69012B01D0012346
:1049E400C0E13D4B1B6823F0F8027B685B69DB0088
:1049F400394913430B603AE07B681B69002B20D0D4
:104A0400364B01221A60FFF769FC386108E0FFF7B2
:104A140065FC02463B69D31A022B01D90323A1E1A9
:104A24002D4B1B6803F00203002BF0D02A4B1B68AC
:104A340023F0F8027B685B69DB00274913430B60B2
:104A440015E0264B00221A60FFF748FC386108E0A5
:104A5400FFF744FC02463B69D31A022B01D9032316
:104A640080E11D4B1B6803F00203002BF0D17B682F
:104A74001B6803F00803002B3AD07B689B69002B6A
:104A840019D0174B01221A60FFF728FC386108E09F
:104A9400FFF724FC02463B69D31A022B01D90323F6
:104AA40060E10D4B5B6A03F00203002BF0D00120A0
:104AB40000F09CFA1CE00A4B00221A60FFF70EFC7F
:104AC40038610FE0FFF70AFC02463B69D31A022B58
:104AD40008D9032346E100BF00100240000042420F
:104AE40080044242924B5B6A03F00203002BE9D13B
:104AF4007B681B6803F00403002B00F0A6800023EE
:104B0400FB758B4BDB6903F08053002B0DD1884B75
:104B1400DB69874A43F08053D361854BDB6903F03B
:104B24008053BB60BB680123FB75824B1B6803F495
:104B34008073002B18D17F4B1B687E4A43F480732B
:104B44001360FFF7CBFB386108E0FFF7C7FB0246B1
:104B54003B69D31A642B01D9032303E1754B1B680A
:104B640003F48073002BF0D07B68DB68012B06D143
:104B74006F4B1B6A6E4A43F0010313622DE07B689E
:104B8400DB68002B0CD16A4B1B6A694A23F00103D2
:104B94001362674B1B6A664A23F0040313621CE02A
:104BA4007B68DB68052B0CD1614B1B6A604A43F0C0
:104BB400040313625E4B1B6A5D4A43F001031362F4
:104BC4000BE05B4B1B6A5A4A23F001031362584BF8
:104BD4001B6A574A23F0040313627B68DB68002BCB
:104BE40015D0FFF77BFB38610AE0FFF777FB02463D
:104BF4003B69D31A41F28832934201D90323B1E0CD
:104C04004B4B1B6A03F00203002BEED014E0FFF7BA
:104C140065FB38610AE0FFF761FB02463B69D31A82
:104C240041F28832934201D903239BE0404B1B6A33
:104C340003F00203002BEED1FB7D012B05D13C4B8D
:104C4400DB693B4A23F08053D3617B68DB69002B2B
:104C540000F08780364B5B6803F00C03082B61D0AF
:104C64007B68DB69022B46D1334B00221A60FFF7C5
:104C740035FB386108E0FFF731FB02463B69D31A84
:104C8400022B01D903236DE0294B1B6803F0007349
:104C9400002BF0D17B681B6AB3F5803F08D1244B0D
:104CA4005B6823F400327B689B68214913434B60A3
:104CB4001F4B5B6823F474127B68196A7B685B6A18
:104CC4000B431B4913434B601B4B01221A60FFF734
:104CD40005FB386108E0FFF701FB02463B69D31A84
:104CE400022B01D903233DE0114B1B6803F0007331
:104CF400002BF0D035E0104B00221A60FFF7EEFADB
:104D0400386108E0FFF7EAFA02463B69D31A022B3E
:104D140001D9032326E0064B1B6803F00073002B24
:104D2400F0D11EE07B68DB69012B07D1012319E078
:104D34000010024000700040600042420B4B5B6870
:104D4400FB60FB6803F480327B681B6A9A4206D1DD
:104D5400FB6803F470127B685B6A9A4201D00123FA
:104D640000E0002318461837BD4680BD00100240FD
:104D740080B584B000AF786039607B68002B01D1C6
:104D84000123D0E06A4B1B6803F007033A689A4298
:104D940010D9674B1B6823F0070265493B6813432E
:104DA4000B60634B1B6803F007033A689A4201D017
:104DB4000123B8E07B681B6803F00203002B20D0BA
:104DC4007B681B6803F00403002B05D0594B5B6818
:104DD400584A43F4E06353607B681B6803F008039C
:104DE400002B05D0534B5B68524A43F46053536025
:104DF400504B5B6823F0F0027B689B684D4913437A
:104E04004B607B681B6803F00103002B40D07B6878
:104E14005B68012B07D1474B1B6803F40033002B5D
:104E240015D101237FE07B685B68022B07D1414BDE
:104E34001B6803F00073002B09D1012373E03D4B81
:104E44001B6803F00203002B01D101236BE0394BF3
:104E54005B6823F003027B685B68364913434B604D
:104E6400FFF73CFAF8600AE0FFF738FA0246FB68FD
:104E7400D31A41F28832934201D9032353E02D4BD4
:104E84005B6803F00C027B685B689B009A42EBD181
:104E9400274B1B6803F007033A689A4210D2244B4D
:104EA4001B6823F0070222493B6813430B60204B25
:104EB4001B6803F007033A689A4201D0012332E0E9
:104EC4007B681B6803F00403002B08D0194B5B6854
:104ED40023F4E0627B68DB68164913434B607B680C
:104EE4001B6803F00803002B09D0124B5B6823F402
:104EF40060527B681B69DB000E4913434B6000F072
:104F040021F802460B4B5B681B0903F00F030A49A7
:104F1400CB5C22FA03F3094A1360094B1B68184659
:104F2400FFF79AF9002318461037BD4680BD00BF2D
:104F34000020024000100240DC2D00080000002088
:104F44000400002080B487B000AF0023FB6000237E
:104F5400BB6000237B6100237B6000233B611E4B0D
:104F64005B68FB60FB6803F00C03042B02D0082B86
:104F740003D027E0194B3B6127E0FB689B0C03F04F
:104F84000F03174AD35C7B60FB6803F48033002B68
:104F940010D0114B5B685B0C03F00103114AD35C26
:104FA400BB607B680D4A03FB02F2BB68B2FBF3F300
:104FB4007B6104E07B680C4A02FB03F37B617B6941
:104FC4003B6102E0054B3B6100BF3B6918461C375F
:104FD400BD4680BC704700BF0010024000127A003A
:104FE400EC2D0008FC2D000800093D0080B485B0BC
:104FF40000AF78600A4B1B680A4AA2FB03235B0AD2
:105004007A6802FB03F3FB6000BFFB685A1EFA6078
:10501400002BF9D100BF00BF1437BD4680BC7047D8
:1050240000000020D34D621003460244934200D195
:10503400704703F8011BF9E770B500260C4D0D4CC1
:10504400641BA410A64209D100F01AF800260A4DE8
:105054000A4C641BA410A64205D170BD55F8043B4C
:1050640098470136EEE755F8043B98470136F2E7D6
:10507400002E0008002E0008002E0008042E000850
:10508400F8B500BFF8BC08BC9E467047F8B500BF31
:10509400F8BC08BC9E4670470000000000000000F9
:1050A40001020304060708090203040506070809A8
:1050B4000A0B0C0D0E0F101001020000311D000828
:1050C4000D1D00080024F400100000000100000081
:1050D400FFFFFFFFFFFFFFFFFFFFFFFF00000000D8
:1050E40000000000000000000000000000000000BC
:1050F40000000000000000000000000000000000AC
:105104000000000C000C000C000C000C000C000C47
:10511400000C000C000C000C0000000C000C000043
:10512400000000000000001B001B001B001B001BF4
:10513400000000000000000000000000000000006B
:105144000000000000000000000080198019801990
:105154008019C07FC07F80190033C07FC07F0033B7
:105164000033003300330000000000000000001E84
:10517400003F807580650074003C001E00078005B8
:10518400806580658075003F001E000400040000F7
:105194000000007000D840D8C0D880D90073000641
:1051A400000C801BC036C066C046C00680030000E9
:1051B400000000000000001E003F003300330033F5
:1051C400001E000CC03CC066806380618063C03EEA
:1051D400801C0000000000000000000C000C000C0B
:1051E400000C000C000000000000000000000000A3
:1051F400000000000000000000000000800000012A
:105204000003000600060004000C000C000C000C57
:10521400000C000C000400060006000300018000DE
:10522400002000100018000C000C0004000600060A
:1052340000060006000600060004000C000C00181E
:10524400001000200000000C002D003F001E003361
:10525400000000000000000000000000000000004A
:105264000000000000000000000000000000000C2E
:10527400000C000C000CC0FFC0FF000C000C000C64
:10528400000C00000000000000000000000000000E
:10529400000000000000000000000000000000000A
:1052A400000000000000000C000C000400040008D2
:1052B40000000000000000000000000000000000EA
:1052C4000000001E001E000000000000000000009E
:1052D40000000000000000000000000000000000CA
:1052E4000000000000000000000000000000000CAE
:1052F400000C000000000000000000030003000395
:105304000006000600060006000C000C000C000C51
:105314000018001800180000000000000000001E23
:10532400003F0033806180618061806D806D8061A9
:10533400806180610033003F001E00000000000017
:1053440000000006000E001E0036002600060006BF
:10535400000600060006000600060006000600001F
:10536400000000000000001E003F80738061806127
:10537400800100030006000C001800300060807FEC
:10538400807F0000000000000000001C003E00635D
:1053940000630003000E000E0003800180018061A1
:1053A4008073003F001E00000000000000000006A3
:1053B400000E000E001E001E0016003600360066A9
:1053C400807F807F000600060006000000000000C9
:1053D4000000007F007F006000600060006E007FBE
:1053E40080638001800180618073003F001E0000A3
:1053F400000000000000001E003F80338061006058
:10540400006E007F80738061806180618033003F23
:10541400001E0000000000000000807F807F8001EB
:105424000003000300060006000C000C000C00083A
:105434000018001800180000000000000000001E02
:10544400003F8063806180610021001E003F806115
:10545400806180618061003F001E00000000000048
:105464000000001E003F00738061806180618073D2
:10547400803F801D800180610073003F001E00009A
:105484000000000000000000000000000000000C0C
:10549400000C000000000000000000000000000CF0
:1054A400000C0000000000000000000000000000EC
:1054B40000000000000C000C0000000000000000D0
:1054C4000000000C000C00040004000800000000B0
:1054D4000000000080008003000E003800600038E7
:1054E400000E8003800000000000000000000000A7
:1054F40000000000000000000000807F807F0000AA
:105504000000807F807F0000000000000000000099
:1055140000000000000000000000000000400070D7
:10552400001C000780010007001C00700040000000
:1055340000000000000000000000001F803FC07158
:10554400C060C000C00180030007000E000C000C06
:105554000000000C000C0000000000000000001E11
:10556400003F803180718063806F806D806D806FBB
:10557400806700600032003E001C00000000000054
:105584000000000E000E001B001B001B001B8031DE
:105594008031803F803F8031C060C060C0600000C7
:1055A400000000000000007C007E006300630063D4
:1055B4000063007E007E0063806180618063007F01
:1055C400007E0000000000000000001E003F80314B
:1055D40080610060006000600060006000608061C5
:1055E4008031003F001E0000000000000000007C2D
:1055F400007F00638063806180618061806180617D
:10560400806100630063007E007C000000000000F5
:105614000000807F807F0060006000600060007F89
:10562400007F0060006000600060807F807F000079
:10563400000000000000807F807F00600060006048
:105644000060007F007F0060006000600060006018
:1056540000600000000000000000001E003F8031D8
:1056640080610060006000608063806380618061AD
:105674008031803F001E00000000000000008061B7
:1056840080618061806180618061807F807F8061D2
:1056940080618061806180618061000000000000A1
:1056A4000000003F003F000C000C000C000C000C3C
:1056B400000C000C000C000C000C003F003F00002C
:1056C4000000000000008001800180018001800151
:1056D4008001800180018001806180618073003FCE
:1056E400001E0000000000000000C0608061006334
:1056F40000660066006C0078007C0066006600634B
:1057040080618061C0600000000000000000006053
:105714000060006000600060006000600060006085
:10572400006000600060807F807F00000000000057
:105734000000C071C071C07BC07AC06AC06AC06E0C
:10574400C064C060C060C060C060C060C060000071
:105754000000000000008071807180798079807978
:10576400806D806D806D80658067806780678063F1
:1057740080630000000000000000001E003F0033B2
:10578400806180618061806180618061806180610D
:105794000033003F001E0000000000000000007EF7
:1057A400007F80638061806180618063007F007E10
:1057B4000060006000600060006000000000000005
:1057C4000000001E003F00338061806180618061C1
:1057D40080618061806580670033803F401E0000E7
:1057E400000000000000007E007F80638061806113
:1057F4008063007F007E00660063006380618061D7
:10580400C0600000000000000000000E001F803196
:10581400803100300038001E000780038061806101
:105824008031003F001E0000000000000000C0FFA7
:10583400C0FF000C000C000C000C000C000C000C51
:10584400000C000C000C000C000C00000000000018
:10585400000080618061806180618061806180611D
:1058640080618061806180618073003F001E000060
:10587400000000000000C060C060C0608031803162
:105884008031001B001B001B001B000E000E000ECD
:1058940000040000000000000000C0C0C0C0C0C080
:1058A400C0C0C0C0C0CC804C804C805E805280524E
:1058B4008073806180610000000000000000C0C0AF
:1058C400806080610033003B001E000C000C001E51
:1058D400001F003B80718061C0C000000000000018
:1058E4000000C0C08061806100330033001E001ED0
:1058F400000C000C000C000C000C000C000C000050
:10590400000000000000803F803F8001000300038E
:105914000006000C000C0018001800300060807FA6
:10592400807F000000000000000F000F000C000C3E
:10593400000C000C000C000C000C000C000C000C03
:10594400000C000C000C000C000F000F00000018ED
:1059540000180018000C000C000C000C00060006D7
:10596400000600060003000300030000000000001E
:10597400001E001E000600060006000600060006C3
:1059840000060006000600060006000600060006E3
:10599400001E001E0000000C000C001E001200334C
:1059A40000338061806100000000000000000000FE
:1059B40000000000000000000000000000000000E3
:1059C40000000000000000000000000000000000D3
:1059D4000000000000000000E0FF000000000038AC
:1059E4000018000C0000000000000000000000008F
:1059F40000000000000000000000000000000000A3
:105A040000000000000000000000001F803F8061D3
:105A14008001801F803F80618063807FC0380000E8
:105A24000000000000000060006000600060006E84
:105A3400007F807380618061806180618073007FFA
:105A4400006E0000000000000000000000000000E4
:105A54000000001E003F8073806100600060806170
:105A64008073003F001E0000000000000000800161
:105A7400800180018001801D803F8073806180618E
:105A8400806180618073803F801D00000000000001
:105A940000000000000000000000001E003F007332
:105AA4008061807F807F00608071003F001E000065
:105AB400000000000000C007C00F000C000C807F35
:105AC400807F000C000C000C000C000C000C000C7F
