:020000040800F2
:104C000000500020ED5F0008955E00089B5E0008E4
:104C1000A15E0008A75E0008AD5E0008000000006D
:104C2000000000000000000000000000B35E00086B
:104C3000BF5E000800000000CB5E0008D95E0008DF
:104C400035600008356000083560000835600008F0
:104C500035600008356000083560000835600008E0
:104C600035600008356000083560000835600008D0
:104C700035600008356000083560000835600008C0
:104C800035600008356000083560000835600008B0
:104C9000F55E0008356000083560000835600008E2
:104CA0003560000835600008356000083560000890
:104CB0003560000835600008356000083560000880
:104CC0003560000835600008356000083560000870
:104CD0003560000835600008356000083560000860
:104CE00035600008356000083560000800000000ED
:104CF00000000000000000000000000000000000B4
:0C4D000000000000000000005FF808F157
:104D0C0010B5054C237833B9044B13B10448AFF3F9
:104D1C0000800123237010BD18000020000000004B
:104D2C00588B000808B5034B1BB103490348AFF37C
:104D3C00008008BD000000001C000020588B0008FB
:104D4C0010F8012B11F8013B012A28BF9A42F7D029
:104D5C00D01A704780B485B000AF78600023FB6038
:104D6C0016E0FB6803F5003301339B027A689A4224
:104D7C000BD2FB6803F500339B027A689A4204D38A
:104D8C00FB6803F500339B0206E0FB680133FB6014
:104D9C00FB687F2BE5DD002318461437BD4680BC2D
:104DAC007047000090B58BB000AFF860B960134647
:104DBC00FB8000237B6202F0A9F9F868FFF7CAFFB9
:104DCC003862FB889B001A46FB681344FB61F86948
:104DDC00FFF7C0FFB861204B00221A601E4A3B6AE5
:104DEC009360BA693B6AD31A9B0A01331A4AD3609F
:104DFC0007F114031946184802F07AFA0346002BFF
:104E0C001ED002F0B9F9034621E07B6A9B00BA6818
:104E1C0013441B684FF000041A462346F96802201D
:104E2C0002F004F90346002B06D1FB680433FB6047
:104E3C007B6A01337B6203E002F09EF9034606E0D5
:104E4C00FB887A6A9A42E0DB02F086F90023184666
:104E5C002C37BD4690BD00BF3400002080B485B017
:104E6C0000AFF860B9601346FB80FB681A68BB683A
:104E7C001A60FB680433FB60BB680433BB60FB88BF
:104E8C005A1EFA80002B00D0EFE700BF00BF14378A
:104E9C00BD4680BC7047000080B483B000AF0346B1
:104EAC003960FB7197F90730002B0ADB3B68DAB2EB
:104EBC000C4997F907301201D2B20B4483F8002346
:104ECC000AE03B68DAB20849FB7903F00F03043BB4
:104EDC001201D2B20B441A7600BF0C37BD4680BC0F
:104EEC00704700BF00E100E000ED00E080B400AFCF
:104EFC00BFF34F8F054BDB6803F4E0620349044BAF
:104F0C001343CB60BFF34F8F00BFFDE700ED00E014
:104F1C000400FA0580B582B000AF78607B68013B75
:104F2C00B3F1807F01D301230FE00A4A7B68013B78
:104F3C0053600F214FF0FF30FFF7AEFF054B0022FF
:104F4C009A60044B07221A60002318460837BD46A6
:104F5C0080BD00BF10E000E080B584B000AF786089
:104F6C000023FB60424B434A0021786801F0EDFBC3
:104F7C000421414802F0EDFB404B1B780A2B6DD805
:104F8C0001A252F823F000BF69500008C14F00087D
:104F9C0069500008ED4F0008FD4F000869500008EB
:104FAC006950000825500008695000086950000835
:104FBC006950000832492E48FFF7C2FE0346002B09
:104FCC0003D1032000F090FA4AE02E492848FFF75D
:104FDC00B7FE0346002B43D1022000F085FA3FE0D8
:104FEC00234B1B68284A1360042000F07DFA3AE03A
:104FFC001F4B1A68244B1B689A4209D1224B1B6821
:10500C0041F65732934203D8062000F06DFA2AE09D
:10501C00052000F069FA26E00023FB600CE0FA683A
:10502C001A4B1B6813441249FA680A441178184A3F
:10503C00D154FB680133FB60FB68072BEFDD134B8E
:10504C001B680833114A1360104B1A680E4B1B680F
:10505C009A4207D3082000F047FA03E000BF02E0B1
:10506C0000BF00E000BF00BF1037BD4680BD00BFD1
:10507C00B01F0020842000200008014045000020C3
:10508C00708B00087C8B0008A41B0020A01B002048
:10509C004800002080B582B000AF00F0C7FF0123AC
:1050AC00FB700123BB7000F007F900F0A3F900F0CE
:1050BC003DF900F071F900F07DFB00F09EFD00F071
:1050CC0023FF6D4B1B685B001846FFF723FF6B4BF0
:1050DC0000221A60694B00229A60684B07221A6002
:1050EC00674B00221A70674B01221A61654B002234
:1050FC009A60644B0022DA60624B00221A75624B94
:10510C0000221A61604B00221A605F4B00225A6029
:10511C005D4B00229A605C4B0022DA605A4B0122F4
:10512C00DA61594B01221A625749584801F0FDF8CF
:10513C00564801F0C3F90221544801F027FC002025
:10514C0000F0D2F9524B1B780A2B00F2918001A28D
:10515C0052F823F08D5100087D520008DB510008F5
:10516C007D5200087D520008C15100087D52000894
:10517C007D520008F5510008455200087D52000888
:10518C000121444802F0B6FA0346FB700221414863
:10519C0002F0B0FA0346BB70BB78002B03D100F0D1
:1051AC002CFDFFF7A3FEFB78002B63D1012000F050
:1051BC009BF95FE0012300220021374800F068FAD8
:1051CC00012000F095FF002000F08EF953E0012340
:1051DC0000220021314800F05BFA012000F088FF2A
:1051EC00002000F081F946E02D4B1B68DBB203F088
:1051FC0007037B707B78002B1AD07B78C3F10803F4
:10520C003B7000237B6009E0264B1A687B681344D3
:10521C00254AFF21D1547B6801337B603B787A6847
:10522C009A42F1DB3A781E4B1B6813441C4A1360FC
:10523C00092000F059F91EE0194B1B685B089BB262
:10524C001A4619491948FFF7ADFD01224FF40051D8
:10525C00174802F066FA002304220021154800F0DA
:10526C0017FA012000F044FF002000F03DF902E0A5
:10527C0000BF67E700BF65E70800002010E000E012
:10528C005C2000206C200020342000200C2000200A
:10529C0045000020000C0140888B00089C8B000806
:1052AC00A41B0020A01B002048000020001C0008AC
:1052BC0000100140B08B000880B590B000AF07F132
:1052CC00180328220021184603F038FC3B1D00224D
:1052DC001A605A609A60DA601A610123BB614FF45C
:1052EC008033FB6100237B6307F11803184603F03E
:1052FC0007F80346002B01D000F058FA0F237B600F
:10530C000123BB600023FB6000233B6100237B6116
:10531C003B1D0021184603F073FA0346002B01D005
:10532C0000F044FA00BF4037BD4680BD80B500AFE9
:10533C00174B184A1A60164B10225A60144B002255
:10534C009A60134B0022DA60114B4FF480321A61D1
:10535C000F4B4FF480125A610D4B00221A760C4BF6
:10536C0000225A760A4B00229A76094B0122DA76F1
:10537C00074B00221A77064B01225A77044800F09B
:10538C00D9FE0346002B01D000F010FA00BF80BDFF
:10539C000C2000200064004080B500AF124B134A73
:1053AC001A60114B124A5A600F4B00229A600E4B36
:1053BC000022DA600C4B4FF480421A610A4B002237
:1053CC005A61094B00229A61074B0022DA61064BA5
:1053DC0000221A62044802F0D5F90346002B01D0D2
:1053EC0000F0E4F900BF80BDB81F0020005400405D
:1053FC00801A060080B588B000AF07F110030022B8
:10540C001A605A609A60DA60334B9B69324A43F0F7
:10541C0010039361304B9B6903F01003FB60FB6836
:10542C002D4B9B692C4A43F0200393612A4B9B69BB
:10543C0003F02003BB60BB68274B9B69264A43F0F3
:10544C0004039361244B9B6903F004037B607B682A
:10545C00214B9B69204A43F0080393611E4B9B69C7
:10546C0003F008033B603B6800224FF400511B48DB
:10547C0002F057F900220621194802F052F94FF4B4
:10548C0000533B6101237B610023BB610223FB6161
:10549C0007F110031946114801F0D2FF06233B61B6
:1054AC0001237B610023BB610223FB6107F1100325
:1054BC0019460B4801F0C4FF03233B6100237B61B9
:1054CC000023BB6107F110031946064801F0B8FF31
:1054DC0000BF2037BD4680BD0010024000100140C7
:1054EC0000080140000C014080B584B000AF0346B9
:1054FC00FB71FB790A2B00F29A8001A252F823F07F
:10550C0039550008A15500083B560008CD55000838
:10551C00E15500083B560008F555000811560008E7
:10552C001F5600082D5600083B5600080123002288
:10553C000021434800F0ACF800230122002141482F
:10554C0000F0A6F80023022200213F4800F0A0F84A
:10555C000023FB6007F10C03002219463B48FFF7C0
:10556C007DFCFB68B3F1FF3F0FD000230422002128
:10557C00374800F08DF8002305220021354800F053
:10558C0087F8354B01221A7052E0334B00221A7007
:10559C0000BF4DE0012300220021304800F078F8D4
:1055AC000023022200212E4800F072F8002303226F
:1055BC0006212C4800F06CF82B4800F0C1F837E0BD
:1055CC002A4800F0BDF8002304220021284800F0EE
:1055DC005FF82DE0254800F0B3F8002305220021E8
:1055EC00244800F055F823E0012300220021224832
:1055FC0000F04EF8214B07221A700723FB7120484C
:10560C0000F09EF80023012200211E4800F040F813
:10561C000EE00023022200211B4800F039F807E0BD
:10562C00002303220021194800F032F800E000BFEB
:10563C00124AFB79137000BF1037BD4680BD00BF06
:10564C00C48B0008C88B0008DC8B0008001C000809
:10565C00F08B0008008C000844000020148C00081B
:10566C00208C0008308C00083C8C0008488C00080A
:10567C00548C0008688C00087C8C000845000020C5
:10568C00908C00089C8C0008B08C0008C48C00081E
:10569C0080B582B000AF7860084611461A460346C2
:1056AC00FB700B46BB7013467B70FB78112B1FD81D
:1056BC00BB78052B1CD87B78012B01D100F09DFA0F
:1056CC00FB789BB21A46D200D31A9AB2BB789BB223
:1056DC00194689000B445B009BB21946104600F03A
:1056EC00D1F901220449786800F062FA00F026F939
:1056FC0000BF0837BD4680BD0000002080B485B0D7
:10570C0000AF786039607B68002B13D03B68002BAE
:10571C0010D00023FB730AE0FB7B3A681A44FB7B36
:10572C0079680B4412781A70FB7B0133FB73FB7B9B
:10573C00072BF1D900BF1437BD4680BC7047000061
:10574C0080B584B000AF7860134800F0CAFF034600
:10575C00FB7304E0104800F0C4FF0346FB73FB7BB3
:10576C00002BF7D00D4B40F201121A600B4B0822A4
:10577C001A6179680A48FFF7C1FF0A4B084A0749C2
:10578C00054800F0DFFE0221074801F0E2FF00BFF0
:10579C001037BD4680BD00BF0C2000206C200020BF
:1057AC005C200020682000200008014080B400AF7D
:1057BC0072B6FEE780B582B000AF00F027FA44F66F
:1057CC002063012278215B4802F012FA0346002B79
:1057DC0001D00023A9E040F6C4137B6002E07B6893
:1057EC00013B7B607B68002BF9D1AE220021782035
:1057FC0000F068FA20220021782000F063FA1022D1
:10580C000021782000F05EFAB0220021782000F010
:10581C0059FAC8220021782000F054FA0022002105
:10582C00782000F04FFA10220021782000F04AFA7C
:10583C0040220021782000F045FA812200217820B6
:10584C0000F040FAFF220021782000F03BFAA12260
:10585C000021782000F036FAA6220021782000F0F2
:10586C0031FAA8220021782000F02CFA3F220021E6
:10587C00782000F027FAA4220021782000F022FAE8
:10588C00D3220021782000F01DFA0022002178207C
:10589C0000F018FAD5220021782000F013FAF0223B
:1058AC000021782000F00EFAD9220021782000F097
:1058BC0009FA22220021782000F004FADA220021D1
:1058CC00782000F0FFF912220021782000F0FAF97C
:1058DC00DB220021782000F0F5F92022002178202D
:1058EC0000F0F0F98D220021782000F0EBF9142261
:1058FC000021782000F0E6F9AF220021782000F09A
:10590C00E1F92E220021782000F0DCF9002000F0D3
:10591C0043F800F013F8084B00221A80064B0022C3
:10592C005A80054B01225A71012318460837BD468F
:10593C0080BD00BFB81F0020A81F002080B582B01A
:10594C0000AF0023FB711DE0FB79503BDBB21A4624
:10595C000021782000F0B6F900220021782000F018
:10596C00B1F910220021782000F0ACF9FB79DB01B1
:10597C00084A1A4480234021782000F05BF9FB7917
:10598C000133FB71FB79072BDED900BF0837BD460D
:10599C0080BD00BFA81B002080B582B000AF0346BD
:1059AC00FB71FB79002B01D1002300E0FF234FF4A6
:1059BC0080621946034803F0C1F800BF0837BD46A2
:1059CC0080BD00BFA81B002080B483B000AF03468D
:1059DC00FB800B46BB801346FB70FB887F2B48D8A3
:1059EC00BB883F2B45D8254B1B79002B06D0FB7869
:1059FC00002B0CBF01230023DBB2FB70FB78012BC7
:105A0C001AD1FA88BB88DB0898B20346DB01134431
:105A1C001B4AD35C5AB2BB8803F00703012101FA7D
:105A2C0003F35BB2134359B2FA880346DB01134408
:105A3C00C9B2134AD1541DE0FA88BB88DB0898B26E
:105A4C000346DB0113440E4AD35C5AB2BB8803F005
:105A5C000703012101FA03F35BB2DB435BB2134092
:105A6C0059B2FA880346DB011344C9B2044AD15433
:105A7C0000E000BF0C37BD4680BC7047A81F00205B
:105A8C00A81B002080B483B000AF03460A46FB80FD
:105A9C001346BB80054AFB881380044ABB8853809D
:105AAC0000BF0C37BD4680BC704700BFA81F00204C
:105ABC0080B586B000AF03463960FB711346BB71ED
:105ACC003A4B1B881A463B681B7813447F2B07DC28
:105ADC00364B5B881A463B685B7813443F2B01DDE1
:105AEC0000235EE000237B614BE03B685A68FB7946
:105AFC00203B3968497801FB03F319467B690B4459
:105B0C005B0013441B88FB6000233B6130E0FA68A8
:105B1C003B6902FA03F303F40043002B10D0234B30
:105B2C001A883B699BB2134498B2204B5A887B6904
:105B3C009BB213449BB2BA791946FFF745FF14E0A8
:105B4C001A4B1A883B699BB2134498B2174B5A886C
:105B5C007B699BB2134499B2BB79002B0CBF012318
:105B6C000023DBB21A46FFF72FFF3B6901333B6181
:105B7C003B681B781A463B699342C8D37B69013357
:105B8C007B613B685B781A467B699342ADD3074BCC
:105B9C001A883B681B789BB213449AB2034B1A8049
:105BAC00FB7918461837BD4680BD00BFA81F0020E2
:105BBC0080B584B000AFF860B9601346FB7112E099
:105BCC00FB681B78FA79B9681846FFF771FF034632
:105BDC001A46FB681B789A4202D0FB681B7808E0D7
:105BEC00FB680133FB60FB681B78002BE8D1FB687A
:105BFC001B7818461037BD4680BD80B500AF00201D
:105C0C00FFF7CAFEFFF79AFE00BF80BD80B483B0D9
:105C1C0000AF074B7B6002E07B68013B7B607B68DD
:105C2C00002BF9D100BF0C37BD4680BC704700BFBC
:105C3C0090D0030090B5C7B002AF04460846394671
:105C4C000A601946FB1D22461A70BB1D02461A70CB
:105C5C003B1D0A461A8007F10C03BA1D12781A7004
:105C6C00002387F80F3110E097F80F313A4612688D
:105C7C001A4497F80F310133117807F10C02D15403
:105C8C0097F80F31013387F80F3197F80F319BB22A
:105C9C003A1D12889A42E7D8FB1D1B7899B23B1D1E
:105CAC001B88013398B207F10C020A2300930346B8
:105CBC00034801F09FFE00BF07F58A77BD4690BDF3
:105CCC00B81F002080B586B002AF0346FB710B46AF
:105CDC00BB7113467B71BB793B737B797B73FB790F
:105CEC0099B207F10C020A2300930223034801F036
:105CFC0081FE00BF1037BD4680BD00BFB81F00201D
:105D0C0080B485B000AF154B9B69144A43F0010376
:105D1C009361124B9B6903F00103BB60BB680F4B93
:105D2C00DB690E4A43F08053D3610C4BDB6903F003
:105D3C0080537B607B680A4B5B68FB60FB6823F0DD
:105D4C00E063FB60FB6843F00073FB60044AFB6894
:105D5C00536000BF1437BD4680BC70470010024032
:105D6C000000014080B588B000AF786007F11003E7
:105D7C0000221A605A609A60DA607B681B68204ABD
:105D8C00934239D11F4BDB691E4A43F00073D36138
:105D9C001C4BDB6903F00073FB60FB68194B9B69C0
:105DAC00184A43F004039361164B9B6903F00403F8
:105DBC00BB60BB684FF400633B6100237B61002335
:105DCC00BB6107F1100319460F4801F039FB4FF482
:105DDC0080533B6102237B610323FB6107F11003BA
:105DEC001946094801F02CFB00220021142001F077
:105DFC00E6F8142001F0FFF800BF2037BD4680BD47
:105E0C0000640040001002400008014080B588B0DA
:105E1C0000AF786007F1100300221A605A609A6094
:105E2C00DA607B681B68154A934223D1144B9B693B
:105E3C00134A43F008039361114B9B6903F0080369
:105E4C00FB60FB68C0233B6112237B610323FB6176
:105E5C0007F1100319460B4801F0F2FA084BDB6905
:105E6C00074A43F40013D361054BDB6903F40013B9
:105E7C00BB60BB6800BF2037BD4680BD00540040EE
:105E8C0000100240000C014080B400AFFEE780B46B
:105E9C0000AFFEE780B400AFFEE780B400AFFEE7D2
:105EAC0080B400AFFEE780B400AF00BFBD4680BC3D
:105EBC00704780B400AF00BFBD4680BC704780B453
:105ECC0000AF00BFBD4680BC7047000080B500AF7E
:105EDC004FF40051034801F03CFC00F0EDF800BF1A
:105EEC0080BD00BF0010014080B500AF024800F03B
:105EFC0072FD00BF80BD00BF0C20002080B400AF3D
:105F0C0000BFBD4680BC704780B485B000AF002395
:105F1C00FB600023BB6000237B602C4B5B6803F0B1
:105F2C000C03FB60FB68042B07D0082B09D0002B5B
:105F3C0033D1274B274A1A6033E0254B254A1A6088
:105F4C002FE0224B5B6803F47013BB601F4B5B6844
:105F5C0003F480337B60BB689B0C0233BB607B68B3
:105F6C00002B06D1BB681C4A02FB03F3184A1360D2
:105F7C0017E0164B5B6803F40033002B06D0BB68AC
:105F8C00154A02FB03F3124A13600AE0BB68114A7C
:105F9C0002FB03F30E4A136003E00D4B0D4A1A602B
:105FAC0000BF0A4B5B681B0903F00F030B4AD35C61
:105FBC00FB60074B1A68FB6822FA03F3044A136070
:105FCC0000BF1437BD4680BC704700BF00100240B4
:105FDC000800002000127A0000093D0044940008DB
:105FEC00FFF78CFF0B480C490C4A002302E0D458F5
:105FFC00C4500433C4188C42F9D3094A094C002309
:10600C0001E013600432A242FBD302F073FDFFF7F0
:10601C0041F870470000002014000020789400081C
:10602C0018000020C8200020FEE7000080B500AF5B
:10603C00084B1B68074A43F010031360032000F061
:10604C00B3FF0F2000F008F8FFF75AFE00231846A4
:10605C0080BD00BF0020024080B582B000AF7860E8
:10606C00124B1A68124B1B7819464FF47A73B3FB18
:10607C00F1F3B2FBF3F3184600F0CBFF0346002B11
:10608C0001D001230EE07B680F2B0AD8002279681F
:10609C004FF0FF3000F093FF064A7B68136000233B
:1060AC0000E0012318460837BD4680BD08000020DB
:1060BC00100000200C00002080B400AF054B1B78B2
:1060CC001A46054B1B681344034A136000BFBD46B8
:1060DC0080BC704710000020A020002080B400AFCE
:1060EC00024B1B681846BD4680BC7047A0200020A0
:1060FC0080B584B000AF7860FFF7F0FFB8607B68C4
:10610C00FB60FB68B3F1FF3F05D0094B1B781A46C7
:10611C00FB681344FB6000BFFFF7E0FF0246BB685F
:10612C00D31AFA689A42F7D800BF1037BD4680BD23
:10613C001000002080B584B000AF78607B68002B25
:10614C0001D10123EDE07B6893F82030DBB2002B0A
:10615C0002D17868FFF706FE7B681B681A687B68BB
:10616C001B6842F001021A60FFF7B8FFF86012E0FA
:10617C00FFF7B4FF0246FB68D31A0A2B0BD97B68D6
:10618C005B6A43F400327B685A627B68052283F8B1
:10619C0020200123C5E07B681B685B6803F00103CA
:1061AC00002BE5D07B681B681A687B681B6822F0A3
:1061BC0002021A60FFF792FFF86012E0FFF78EFF01
:1061CC000246FB68D31A0A2B0BD97B685B6A43F433
:1061DC0000327B685A627B68052283F820200123F9
:1061EC009FE07B681B685B6803F00203002BE5D122
:1061FC007B681B7E012B08D17B681B681A687B6847
:10620C001B6842F080021A6007E07B681B681A6802
:10621C007B681B6822F080021A607B685B7E012B16
:10622C0008D17B681B681A687B681B6842F04002C7
:10623C001A6007E07B681B681A687B681B6822F091
:10624C0040021A607B689B7E012B08D17B681B681F
:10625C001A687B681B6842F020021A6007E07B68B2
:10626C001B681A687B681B6822F020021A607B6826
:10627C00DB7E012B08D17B681B681A687B681B6866
:10628C0022F010021A6007E07B681B681A687B68B2
:10629C001B6842F010021A607B681B7F012B08D12F
:1062AC007B681B681A687B681B6842F008021A60DE
:1062BC0007E07B681B681A687B681B6822F0080281
:1062CC001A607B685B7F012B08D17B681B681A689E
:1062DC007B681B6842F004021A6007E07B681B684D
:1062EC001A687B681B6822F004021A607B689A6843
:1062FC007B68DB681A437B681B691A437B685B69A4
:10630C0042EA03017B685B685A1E7B681B680A4380
:10631C00DA617B6800225A627B68012283F82020B4
:10632C00002318461037BD4680BD80B487B000AF3F
:10633C00786039607B681B687B617B6893F82030E0
:10634C00FB74FB7C012B03D0FB7C022B40F0AA805E
:10635C007B69D3F8003243F001027B69C3F8002259
:10636C003B685B6903F01F03012202FA03F3FB6035
:10637C007B69D3F81C22FB68DB431A407B69C3F8AA
:10638C001C223B68DB69002B23D17B69D3F80C22E0
:10639C00FB68DB431A407B69C3F80C223B68DB6863
:1063AC0019043B685B689BB23A68526919437B6974
:1063BC00483243F832103B689B6819043B681B68F1
:1063CC009AB23B685B690A4379694833DB000B443A
:1063DC005A603B68DB69012B22D17B69D3F80C2214
:1063EC00FB681A437B69C3F80C223B681B681904D1
:1063FC003B685B689BB23A68526919437B694832C7
:10640C0043F832103B689B6819043B68DB689AB20E
:10641C003B685B690A4379694833DB000B445A607B
:10642C003B689B69002B09D17B69D3F80422FB687C
:10643C00DB431A407B69C3F8042207E07B69D3F87D
:10644C000422FB681A437B69C3F804223B681B696E
:10645C00002B09D17B69D3F81422FB68DB431A406B
:10646C007B69C3F8142207E07B69D3F81422FB681C
:10647C001A437B69C3F814223B681B6A012B07D1B2
:10648C007B69D3F81C22FB681A437B69C3F81C2276
:10649C007B69D3F8003223F001027B69C3F8002238
:1064AC00002306E07B685B6A43F480227B685A62B7
:1064BC00012318461C37BD4680BC704780B584B09C
:1064CC0000AF78607B6893F82030DBB2012B2ED1C3
:1064DC007B68022283F820207B681B681A687B6823
:1064EC001B6822F001021A60FFF7F8FDF86012E059
:1064FC00FFF7F4FD0246FB68D31A0A2B0BD97B6815
:10650C005B6A43F400327B685A627B68052283F82D
:10651C002020012312E07B681B685B6803F00103F9
:10652C00002BE5D17B6800225A62002306E07B68D1
:10653C005B6A43F400227B685A62012318461037C9
:10654C00BD4680BD80B489B000AFF860B9607A6098
:10655C003B60FB6893F82030FB77FB681B689B68FB
:10656C00BB61FB7F012B03D0FB7F022B40F0AD8086
:10657C00BB6903F08063002B0AD1BB6903F0006395
:10658C00002B05D1BB6903F08053002B00F09580E4
:10659C00BB691B0E03F003037B6101227B699A40EC
:1065AC003B681A60BB689B68002B0DD1BB681B68ED
:1065BC005A05BB68DB68F96809681A437B691833AC
:1065CC001B010B441A600FE0BB685B68DA00BB6808
:1065DC009B681A43BB68DB68F96809681A437B69D6
:1065EC0018331B010B441A60FB681968BB681A69E5
:1065FC007B6918331B010B4404331A60BB681B7D89
:10660C00012B11D1FB681A687B6918331B011344E9
:10661C0004331B68FA68116843F480727B69183381
:10662C001B010B4404331A607B6807331B781A0672
:10663C007B6806331B781B041A437B6805331B7875
:10664C001B0213437A68043212781046FA681168F8
:10665C0043EA00027B691B010B4403F5C6731A6005
:10666C007B6803331B781A067B6802331B781B0488
:10667C001A437B6801331B781B0213437A68127828
:10668C001046FA68116843EA00027B691B010B444F
:10669C0003F5C4731A60FB681A687B6918331B0115
:1066AC0013441B68FA68116843F001027B691833C4
:1066BC001B010B441A6000230EE0FB685B6A43F479
:1066CC000012FB685A62012306E0FB685B6A43F424
:1066DC008022FB685A62012318462437BD4680BCD1
:1066EC00704780B485B000AF78600023FB607B6896
:1066FC0093F82030FB72FB7A012B02D0FB7A022B31
:10670C001DD17B681B689B6803F08063002B02D053
:10671C00FB680133FB607B681B689B6803F00063BC
:10672C00002B02D0FB680133FB607B681B689B6805
:10673C0003F08053002B02D0FB680133FB60FB6835
:10674C0018461437BD4680BC704780B487B000AF84
:10675C00F860B9607A603B60FB6893F82030FB7599
:10676C00FB7D012B03D0FB7D022B40F00381BB682A
:10677C00002B0ED1FB681B68DB6803F00303002BB6
:10678C0016D1FB685B6A43F40012FB685A62012362
:10679C00F7E0FB681B681B6903F00303002B07D1B0
:1067AC00FB685B6A43F40012FB685A620123E8E061
:1067BC00FB681A68BB681B331B0113441B6803F08E
:1067CC0004027B689A607B689B68002B0CD1FB6889
:1067DC001A68BB681B331B0113441B685B0DC3F3A6
:1067EC000A027B681A600BE0FB681A68BB681B33F3
:1067FC001B0113441B68DB0823F060427B685A6062
:10680C00FB681A68BB681B331B0113441B6803F03D
:10681C0002027B68DA60FB681A68BB681B331B01D9
:10682C00134404331B6803F00F03072B03D97B6855
:10683C0008221A610BE0FB681A68BB681B331B014A
:10684C00134404331B6803F00F027B681A61FB6866
:10685C001A68BB681B331B01134404331B681B0AE7
:10686C00DAB27B689A61FB681A68BB681B331B0140
:10687C00134404331B681B0C9AB27B685A61FB6887
:10688C001A68BB681B01134403F5DC731B68DAB28E
:10689C003B681A70FB681A68BB681B01134403F54C
:1068AC00DC731B681A0A3B680133D2B21A70FB689E
:1068BC001A68BB681B01134403F5DC731B681A0CC4
:1068CC003B680233D2B21A70FB681A68BB681B01B2
:1068DC00134403F5DC731B681A0E3B680333D2B206
:1068EC001A70FB681A68BB681B01134403F5DE734E
:1068FC001A683B680433D2B21A70FB681A68BB681A
:10690C001B01134403F5DE731B681A0A3B6805333D
:10691C00D2B21A70FB681A68BB681B01134403F5EA
:10692C00DE731B681A0C3B680633D2B21A70FB6814
:10693C001A68BB681B01134403F5DE731B681A0E3F
:10694C003B680733D2B21A70BB68002B08D1FB68C6
:10695C001B68DA68FB681B6842F02002DA6007E00B
:10696C00FB681B681A69FB681B6842F020021A61FD
:10697C00002306E0FB685B6A43F48022FB685A62E2
:10698C00012318461C37BD4680BC704780B485B0C7
:10699C0000AF786039607B6893F82030FB73FB7B29
:1069AC00012B02D0FB7B022B09D17B681B68596938
:1069BC007B681B683A680A435A61002306E07B68CF
:1069CC005B6A43F480227B685A62012318461437B1
:1069DC00BD4680BC704780B58AB000AF786000239C
:1069EC007B627B681B685B693B627B681B685B68CE
:1069FC00FB617B681B689B68BB617B681B68DB6801
:106A0C007B617B681B681B693B617B681B689B69AE
:106A1C00FB603B6A03F00103002B7CD0BB6903F0E5
:106A2C000103002B23D07B681B6801229A60BB6991
:106A3C0003F00203002B03D0786800F07DF916E018
:106A4C00BB6903F00403002B04D07B6A43F400639E
:106A5C007B620CE0BB6903F00803002B04D07B6A5B
:106A6C0043F480537B6202E0786800F080F9BB69E4
:106A7C0003F48073002B24D07B681B684FF4807266
:106A8C009A60BB6903F40073002B03D0786800F0A4
:106A9C005CF916E0BB6903F48063002B04D07B6ABD
:106AAC0043F400537B620CE0BB6903F40063002BDE
:106ABC0004D07B6A43F480437B6202E0786800F088
:106ACC005FF9BB6903F48033002B24D07B681B680F
:106ADC004FF480329A60BB6903F40033002B03D06F
:106AEC00786800F03BF916E0BB6903F48023002BB7
:106AFC0004D07B6A43F400437B620CE0BB6903F473
:106B0C000023002B04D07B6A43F480337B6202E0C9
:106B1C00786800F03EF93B6A03F00803002B0CD0B8
:106B2C007B6903F01003002B07D07B6A43F40073DE
:106B3C007B627B681B681022DA603B6A03F00403FB
:106B4C00002B0BD07B6903F00803002B06D07B686D
:106B5C001B680822DA60786800F024F93B6A03F0BD
:106B6C000203002B09D07B681B68DB6803F003036E
:106B7C00002B02D07868FEF7EFF93B6A03F0400374
:106B8C00002B0CD03B6903F01003002B07D07B6A61
:106B9C0043F480637B627B681B6810221A613B6A3A
:106BAC0003F02003002B0BD03B6903F00803002BF0
:106BBC0006D07B681B6808221A61786800F004F91B
:106BCC003B6A03F01003002B09D07B681B681B6920
:106BDC0003F00303002B02D0786800F0ECF83B6A5A
:106BEC0003F40033002B0BD0FB6903F01003002BD4
:106BFC0006D07B681B6810225A60786800F0EDF8AC
:106C0C003B6A03F48033002B0BD0FB6903F00803C1
:106C1C00002B06D07B681B6808225A60786800F04D
:106C2C00E5F83B6A03F40043002B75D0FB6903F0D5
:106C3C000403002B6CD03B6A03F48073002B08D048
:106C4C00FB6803F00103002B03D07B6A43F00103C4
:106C5C007B623B6A03F40073002B08D0FB6803F0E3
:106C6C000203002B03D07B6A43F002037B623B6A76
:106C7C0003F48063002B08D0FB6803F00403002BA3
:106C8C0003D07B6A43F004037B623B6A03F400632A
:106C9C00002B3DD0FB6803F07003002B38D0FB6851
:106CAC0003F07003302B17D0302B04D8102B09D0E5
:106CBC00202B0CD024E0502B18D0602B1BD0402B59
:106CCC000FD01DE07B6A43F008037B6218E07B6AFF
:106CDC0043F010037B6213E07B6A43F020037B627A
:106CEC000EE07B6A43F040037B6209E07B6A43F071
:106CFC0080037B6204E07B6A43F480737B6200BF99
:106D0C007B681B689A697B681B6822F070029A6129
:106D1C007B681B6804225A607B6A002B08D07B6856
:106D2C005A6A7B6A1A437B685A62786800F067F883
:106D3C0000BF2837BD4680BD80B483B000AF7860FB
:106D4C0000BF0C37BD4680BC704780B483B000AF29
:106D5C00786000BF0C37BD4680BC704780B483B0F0
:106D6C0000AF786000BF0C37BD4680BC704780B464
:106D7C0083B000AF786000BF0C37BD4680BC704755
:106D8C0080B483B000AF786000BF0C37BD4680BCC8
:106D9C00704780B483B000AF786000BF0C37BD463D
:106DAC0080BC704780B483B000AF786000BF0C37F4
:106DBC00BD4680BC704780B483B000AF786000BF24
:106DCC000C37BD4680BC704780B483B000AF786090
:106DDC0000BF0C37BD4680BC704780B483B000AF99
:106DEC00786000BF0C37BD4680BC704780B483B060
:106DFC0000AF786000BF0C37BD4680BC704780B4D4
:106E0C0083B000AF786000BF0C37BD4680BC7047C4
:106E1C0080B485B000AF78607B6803F00703FB603B
:106E2C000C4BDB68BB60BA684FF6FF031340BB60CA
:106E3C00FB681A02BB68134343F0BF6343F400338F
:106E4C00BB60044ABB68D36000BF1437BD4680BC2E
:106E5C00704700BF00ED00E080B400AF044BDB686E
:106E6C001B0A03F007031846BD4680BC704700BFE1
:106E7C0000ED00E080B483B000AF0346FB7197F9DE
:106E8C000730002B0BDBFB7903F01F02064997F947
:106E9C0007305B09012000FA02F241F8232000BF01
:106EAC000C37BD4680BC704700E100E080B483B075
:106EBC0000AF03463960FB7197F90730002B0ADBF2
:106ECC003B68DAB20C4997F907301201D2B20B4485
:106EDC0083F800230AE03B68DAB20849FB7903F037
:106EEC000F03043B1201D2B20B441A7600BF0C37CD
:106EFC00BD4680BC704700BF00E100E000ED00E043
:106F0C0080B489B000AFF860B9607A60FB6803F0B8
:106F1C000703FB61FB69C3F10703042B28BF0423A0
:106F2C00BB61FB690433062B02D9FB69033B00E010
:106F3C0000237B614FF0FF32BB6902FA03F3DA43A3
:106F4C00BB681A407B699A404FF0FF317B6901FAAC
:106F5C0003F3D9437B680B40134318462437BD46D3
:106F6C0080BC704780B582B000AF78607B68013B15
:106F7C00B3F1807F01D301230FE00A4A7B68013B08
:106F8C0053600F214FF0FF30FFF790FF054B0022AD
:106F9C009A60044B07221A60002318460837BD4636
:106FAC0080BD00BF10E000E080B582B000AF78601B
:106FBC007868FFF72DFF00BF0837BD4680BD80B550
:106FCC0086B000AF0346B9607A60FB7300237B6127
:106FDC00FFF742FF78617A68B9687869FFF790FF2C
:106FEC00024697F90F3011461846FFF75FFF00BFB6
:106FFC001837BD4680BD80B582B000AF0346FB712B
:10700C0097F907301846FFF735FF00BF0837BD4624
:10701C0080BD80B582B000AF78607868FFF7A2FFC2
:10702C00034618460837BD4680BD0000F0B587B052
:10703C0000AFF860B960C7E900230123FB7500239A
:10704C00BB7500237B752F4B1B7E012B01D10223BB
:10705C0054E02C4B01221A764CF2503000F0B2F86E
:10706C000346FB75FB7D002B44D1FB68012B02D141
:10707C0001237B7507E0FB68022B02D102237B7591
:10708C0001E004237B750023BB752DE0BB7D5A000A
:10709C00BB6802EB030CBB7D1901D7E90023C1F1DE
:1070AC002006A1F1200022FA01F403FA06F634437B
:1070BC0023FA00F0044323FA01F5A3B21946604603
:1070CC0000F064F84CF2503000F07CF80346FB758D
:1070DC000D4B1B690C4A23F001031361FB7D002B44
:1070EC0007D1BB7D0133BB75BA7D7B7D9A42CDD375
:1070FC0000E000BF034B00221A76FB7D18461C37BC
:10710C00BD46F0BDA82000200020024080B483B012
:10711C0000AF0023FB710D4B1B6903F08003002BA8
:10712C000DD00A4B0A4A5A60084B0A4A5A60074B60
:10713C001B6903F08003002B01D00123FB71FB7949
:10714C0018460C37BD4680BC704700BF002002407B
:10715C0023016745AB89EFCD80B400AF054B1B69AC
:10716C00044A43F08003136100231846BD4680BCDB
:10717C00704700BF0020024080B400AF024BDB69B7
:10718C001846BD4680BC7047A820002080B483B050
:10719C0000AF78600B467B80084B0022DA61084B0D
:1071AC001B69074A43F0010313617B687A881A80D4
:1071BC0000BF0C37BD4680BC704700BFA820002024
:1071CC000020024080B584B000AF7860FEF786FFE7
:1071DC00F86010E07B68B3F1FF3F0CD07B68002BAC
:1071EC0007D0FEF77BFF0246FB68D31A7A689A42F7
:1071FC0001D2032325E0154BDB6803F00103002BC0
:10720C00E8D1124BDB6803F02003002B02D00F4BAC
:10721C002022DA600D4BDB6803F01003002B0BD13E
:10722C000A4BDB6903F00103002B05D1074BDB682C
:10723C0003F00403002B03D000F00AF8012300E054
:10724C00002318461037BD4680BD00BF0020024009
:10725C0080B483B000AF00237B60234BDB6803F06A
:10726C001003002B09D0214BDB6943F002031F4AAA
:10727C00D3617B6843F010037B601B4BDB6803F02E
:10728C000403002B09D0194BDB6943F00103174AA7
:10729C00D3617B6843F004037B60134BDB6903F021
:1072AC000103002B0BD0114BDB6943F004030F4A95
:1072BC00D3610D4BDB690C4A23F00103D3617B686E
:1072CC0040F20112934206D1074BDB69064A23F0C8
:1072DC000103D36102E0044A7B68D36000BF0C3722
:1072EC00BD4680BC704700BF00200240A820002093
:1072FC0080B584B000AF786039600123FB73002344
:10730C00BB602F4B1B7E012B01D1022353E02C4B76
:10731C0001221A767B681B68022B16D14CF2503076
:10732C00FFF750FF0346002B41D1012000F04CF831
:10733C004CF25030FFF746FF0346FB73214B1B69A1
:10734C00204A23F00403136131E04CF25030FFF774
:10735C0039FF0346002B2AD13B684FF0FF321A60ED
:10736C007B689B68BB6019E0B86800F049F84CF288
:10737C005030FFF727FF0346FB73124B1B69114A72
:10738C0023F002031361FB7B002B03D03B68BA682C
:10739C001A600CE0BB6803F58063BB607B68DB683C
:1073AC009A027B689B681344BA689A42DCD3044BFC
:1073BC0000221A76FB7B18461037BD4680BD00BFF5
:1073CC00A82000200020024080B483B000AF786079
:1073DC00094B0022DA61094B1B69084A43F004038C
:1073EC001361064B1B69054A43F04003136100BF50
:1073FC000C37BD4680BC7047A820002000200240FE
:10740C0080B483B000AF78600B4B0022DA610B4B79
:10741C001B690A4A43F002031361084A7B685361F3
:10742C00064B1B69054A43F04003136100BF0C3740
:10743C00BD4680BC704700BFA82000200020024041
:10744C0080B48BB000AF7860396000237B6200237E
:10745C003B6227E101227B6A02FA03F3FB613B6882
:10746C001B68FA691340BB61BA69FB699A4240F028
:10747C0016813B685B68122B34D0122B0DD8022B73
:10748C002BD0022B04D8002B31D0012B1CD048E080
:10749C00032B43D0112B1BD043E0894A934226D0B7
:1074AC00874A934206D8874A934220D0864A934211
:1074BC001DD036E0854A934219D0854A934216D0A6
:1074CC00844A934213D02CE03B68DB683B6228E093
:1074DC003B68DB6804333B6223E03B68DB680833C2
:1074EC003B621EE03B68DB680C333B6219E03B6897
:1074FC009B68002B02D104233B6212E03B689B6823
:10750C00012B05D108233B627B68FA691A6108E0FC
:10751C0008233B627B68FA695A6102E000233B62F4
:10752C0000BFBB69FF2B01D87B6801E07B6804338B
:10753C007B61BB69FF2B02D87B6A9B0002E07B6AF4
:10754C00083B9B003B617B691A680F213B6901FA80
:10755C0003F3DB431A40396A3B6901FA03F31A431C
:10756C007B691A603B685B6803F08053002B00F06A
:10757C009680594B9B69584A43F001039361564BD3
:10758C009B6903F00103BB60BB68544A7B6A9B0890
:10759C00023352F82330FB607B6A03F003039B0039
:1075AC000F2202FA03F3DB43FA681340FB607B689B
:1075BC004B4A934213D07B684A4A93420DD07B6866
:1075CC00494A934207D07B68484A934201D103232E
:1075DC0006E0042304E0022302E0012300E0002380
:1075EC007A6A02F0030292009340FA681343FB603C
:1075FC003A497B6A9B080233FA6841F823203B68BE
:10760C005B6803F48013002B06D0394B9A68384919
:10761C00BB6913438B6006E0354B9A68BB69DB434F
:10762C00334913408B603B685B6803F40013002BF9
:10763C0006D02F4BDA682E49BB691343CB6006E0AA
:10764C002B4BDA68BB69DB4329491340CB603B68A1
:10765C005B6803F40033002B06D0254B5A68244991
:10766C00BB6913434B6006E0214B5A68BB69DB4393
:10767C001F4913404B603B685B6803F48033002B5D
:10768C0006D01B4B1A681A49BB6913430B6006E002
:10769C00174B1A68BB69DB43154913400B607B6AB7
:1076AC0001337B623B681A687B6A22FA03F3002B76
:1076BC007FF4D0AE00BF2C37BD4680BC704700BFF6
:1076CC0000002110000011100000121000003110F9
:1076DC000000321000002210001002400000014097
:1076EC0000080140000C0140001001400014014052
:1076FC000004014080B485B000AF78600B467B80FD
:10770C007B689A687B881340002B02D00123FB73A3
:10771C0001E00023FB73FB7B18461437BD4680BC8D
:10772C00704780B483B000AF78600B467B80134603
:10773C007B707B78002B03D07A887B681A6103E01E
:10774C007B881A047B681A6100BF0C37BD4680BC6D
:10775C00704780B485B000AF78600B467B807B6847
:10776C00DB68FB607A88FB6813401A04FB68D9431A
:10777C007B880B401A437B681A6100BF1437BD46E7
:10778C0080BC704780B584B000AF78607B68002BFC
:10779C0001D101231FE17B6893F83D30DBB2002B54
:1077AC0006D17B68002283F83C207868FEF72EFB1C
:1077BC007B68242283F83D207B681B681A687B68F1
:1077CC001B6822F001021A607B681B681A687B68D0
:1077DC001B6842F400421A607B681B681A687B685D
:1077EC001B6822F400421A6001F052F9F8607B68C1
:1077FC005B687B4A934207D8FB687A4A934294BFF2
:10780C0001230023DBB206E0FB68774A934294BF66
:10781C0001230023DBB2002B01D00123DBE0FB684A
:10782C00724AA2FB03239B0CBB607B681B685B68E2
:10783C0023F03F017B681B68BA680A435A607B6877
:10784C001B681B6A23F03F017B685B68644A9342A8
:10785C0002D8BB68013309E0BB684FF4967202FB97
:10786C0003F3634AA2FB03239B0901337A68126872
:10787C000B4313627B681B68DB6923F44F4222F0D5
:10788C00FF027B685B6856498B420DD8FB68591E1A
:10789C007B685B685B00B1FBF3F30133C3F30B0351
:1078AC00042B38BF04234FE07B689B68002B11D15D
:1078BC00FB68581E7B6859680B465B000B44B0FB99
:1078CC00F3F30133C3F30B03002B0CBF0123002391
:1078DC00DBB212E0FB68581E7B6859680B469B00B4
:1078EC000B4499000B44B0FBF3F30133C3F30B03CC
:1078FC00002B0CBF01230023DBB2002B01D0012392
:10790C0022E07B689B68002B0ED1FB68581E7B68BD
:10791C0059680B465B000B44B0FBF3F30133C3F324
:10792C000B0343F400430FE0FB68581E7B68596857
:10793C000B469B000B4499000B44B0FBF3F3013353
:10794C00C3F30B0343F44043796809681343CB61D9
:10795C007B681B681B6823F0C0017B68DA697B6855
:10796C001B6A1A437B681B680A431A607B681B6896
:10797C009B6823F4034323F0FF037A6811697A6848
:10798C00D26811437A6812680B4393607B681B685A
:10799C00DB6823F0FF017B685A697B689B691A439B
:1079AC007B681B680A43DA607B681B681A687B6813
:1079BC001B6842F001021A607B6800221A647B6823
:1079CC00202283F83D207B6800221A637B6800220A
:1079DC0083F83E20002318461037BD4680BD00BFFB
:1079EC00A08601007F841E00FF083D0083DE1B4340
:1079FC00D34D621080B588B002AFF8607A601A4639
:107A0C000B467B8113463B81FEF768FB7861FB6874
:107A1C0093F83D30DBB2202B40F0E0807B69009383
:107A2C00192301227049F86800F092FA0346002BE2
:107A3C0001D00223D3E0FB6893F83C30012B01D139
:107A4C000223CCE0FB68012283F83C20FB681B6816
:107A5C001B6803F00103012B07D0FB681B681A6835
:107A6C00FB681B6842F001021A60FB681B681A680D
:107A7C00FB681B6822F400621A60FB68212283F801
:107A8C003D20FB68102283F83E20FB6800221A641C
:107A9C00FB687A685A62FB683A895A85FB685B8D89
:107AAC009AB2FB681A85FB68504ADA6279897B695D
:107ABC003A6AF86800F0CAF90346002B01D001239A
:107ACC008DE000233B61FB681B685B693B61FB68D5
:107ADC001B689B693B613B6966E07A69396AF868A7
:107AEC0000F050FB0346002B0DD0FB681B6C042BE5
:107AFC0007D1FB681B681A68FB681B6842F40072AC
:107B0C001A6001236BE0FB685B6A1A78FB681B68E0
:107B1C001A61FB685B6A5A1CFB685A62FB685B8DD6
:107B2C009BB2013B9AB2FB685A85FB681B8D013BEB
:107B3C009AB2FB681A85FB681B685B6903F0040347
:107B4C00042B1BD1FB681B8D002B17D0FB685B6AC9
:107B5C001A78FB681B681A61FB685B6A5A1CFB6825
:107B6C005A62FB685B8D9BB2013B9AB2FB685A85EB
:107B7C00FB681B8D013B9AB2FB681A857A69396ADE
:107B8C00F86800F047FB0346002B0DD0FB681B6C1C
:107B9C00042B07D1FB681B681A68FB681B6842F44E
:107BAC0000721A6001231AE0FB681B8D002B94D124
:107BBC00FB681B681A68FB681B6842F400721A6049
:107BCC00FB68202283F83D20FB68002283F83E20CE
:107BDC00FB68002283F83C20002300E002231846B7
:107BEC001837BD4680BD00BF020010000000FFFF2B
:107BFC0080B58AB002AFF8607A603B600B467B813F
:107C0C00FEF76CFAF8610023BB61FB6893F83D301A
:107C1C00DBB2202B40F01181FB6900931923012268
:107C2C008849F86800F094F90346002B01D0022330
:107C3C0004E1FB6893F83C30012B01D10223FDE0F9
:107C4C00FB68012283F83C20FB681B681B6803F06F
:107C5C000103012B07D0FB681B681A68FB681B68C3
:107C6C0042F001021A60FB681B681A68FB681B680B
:107C7C0022F400621A60FB68242283F83D20FB6822
:107C8C0000221A64FB68704ADA62FB681B681A6887
:107C9C00FB681B6842F480721A60FB6900933B68B6
:107CAC0000224FF00111F86800F052F90346002B46
:107CBC000DD0FB681B681B6803F48073B3F5807FE1
:107CCC0003D1FB684FF400721A640323B6E07B897E
:107CDC00DBB21A46FB681B6802F0FE021A61FEF763
:107CEC00FDF9F861FB681B685B6903F00203022B6A
:107CFC000CBF01230023DBB2FB75FB681B685B69BF
:107D0C0003F48063B3F5806F0CBF01230023DBB257
:107D1C00BB7525E0FEF7E2F90246FB69D31A3A6817
:107D2C009A4202D33B68002B03D1FB68A02283F854
:107D3C003D20FB681B685B6903F00203022B0CBF40
:107D4C0001230023DBB2FB75FB681B685B6903F442
:107D5C008063B3F5806F0CBF01230023DBB2BB75CE
:107D6C00FB6893F83D30DBB2A02B05D0FB7D002BDC
:107D7C0002D1BB7D002BCDD0FB68202283F83D20A7
:107D8C00FB681B685B6903F00203022B29D1FB68BB
:107D9C001B681A68FB681B6842F400721A600023A7
:107DAC003B61FB681B685B693B61FB681B689B69FB
:107DBC003B613B69FB690093192301222149F86857
:107DCC0000F0C6F80346002B01D0012336E0FB6817
:107DDC00202283F83D20FB68002283F83C200023FE
:107DEC002CE0FB681B681A68FB681B6842F4007285
:107DFC001A60FB681B686FF480625A61FB69009320
:107E0C00192301220F49F86800F0A2F80346002B51
:107E1C0001D0012312E0BB690133BB61BA697B68F5
:107E2C009A42FFF432AFFB68202283F83D20FB68B6
:107E3C00002283F83C20012300E00223184620375F
:107E4C00BD4680BD020010000000FFFF80B588B069
:107E5C0002AFF8607A603B600B467B81FB68DB6AA3
:107E6C007B617B69082B06D07B69012B03D07B6976
:107E7C0013F5803F08D1FB681B681A68FB681B6808
:107E8C0042F480721A600BE0FB681B6B122B07D15B
:107E9C00FB681B681A68FB681B6842F480721A60E6
:107EAC003B6800937B6800224FF00111F86800F0EA
:107EBC004FF80346002B0DD0FB681B681B6803F4BE
:107ECC008073B3F5807F03D1FB684FF400721A64A2
:107EDC00032335E0FB681B69B3F5804F08D17B8920
:107EEC00DBB21A46FB681B6802F0FE021A611BE04B
:107EFC007B89DB11DBB203F00603DBB263F00F030B
:107F0C00DAB2FB681B681A613B687A680E49F8683C
:107F1C0000F098F80346002B01D0012310E07B8978
:107F2C00DAB2FB681B681A613B687A680749F86823
:107F3C0000F088F80346002B01D0012300E0002359
:107F4C0018461837BD4680BD08000100020001002C
:107F5C0080B584B000AFF860B9603B601346FB712C
:107F6C0048E03B68B3F1FF3F44D0FEF7B7F8024658
:107F7C00BB69D31A3A689A4202D33B68002B39D1B9
:107F8C00BB681B0CDBB2012B0DD1FB681B685B695A
:107F9C00DA43BB6813409BB2002B0CBF01230023B8
:107FAC00DBB21A460CE0FB681B689B69DA43BB68C2
:107FBC0013409BB2002B0CBF01230023DBB21A46EB
:107FCC00FB799A4216D1FB6800221A63FB682022C7
:107FDC0083F83D20FB68002283F83E20FB681B6C75
:107FEC0043F02002FB681A64FB68002283F83C20F3
:107FFC00012323E0BB681B0CDBB2012B0DD1FB680A
:10800C001B685B69DA43BB6813409BB2002B0CBF47
:10801C0001230023DBB21A460CE0FB681B689B694A
:10802C00DA43BB6813409BB2002B0CBF0123002327
:10803C00DBB21A46FB799A4293D0002318461037CC
:10804C00BD4680BD80B584B000AFF860B9607A6081
:10805C003B6071E0FB681B685B6903F48063B3F5FC
:10806C00806F23D1FB681B681A68FB681B6842F49D
:10807C0000721A60FB681B686FF480625A61FB68BF
:10808C0000221A63FB68202283F83D20FB68002243
:10809C0083F83E20FB681B6C43F00402FB681A64F7
:1080AC00FB68002283F83C20012367E07B68B3F176
:1080BC00FF3F41D0FEF712F802463B68D31A7A68AC
:1080CC009A4202D37B68002B36D1BB681B0CDBB207
:1080DC00012B0CD1FB681B685B69DA43BB6813404E
:1080EC009BB2002B14BF01230023DBB20BE0FB6817
:1080FC001B689B69DA43BB6813409BB2002B14BF0F
:10810C0001230023DBB2002B16D0FB6800221A637C
:10811C00FB68202283F83D20FB68002283F83E2078
:10812C00FB681B6C43F02002FB681A64FB6800229E
:10813C0083F83C20012321E0BB681B0CDBB2012B34
:10814C000CD1FB681B685B69DA43BB6813409BB2BC
:10815C00002B14BF01230023DBB20BE0FB681B6870
:10816C009B69DA43BB6813409BB2002B14BF0123FD
:10817C000023DBB2002B7FF46DAF002318461037C1
:10818C00BD4680BD80B584B000AFF860B9607A6040
:10819C0034E0F86800F086F80346002B01D0012388
:1081AC0034E0BB68B3F1FF3F28D0FDF797FF0246E0
:1081BC007B68D31ABA689A4202D3BB68002B1DD1D4
:1081CC00FB681B685B6903F08003802B16D0FB688F
:1081DC0000221A63FB68202283F83D20FB680022F2
:1081EC0083F83E20FB681B6C43F02002FB681A648A
:1081FC00FB68002283F83C20012307E0FB681B6826
:10820C005B6903F08003802BC3D100231846103721
:10821C00BD4680BD80B584B000AFF860B9607A60AF
:10822C0034E0F86800F03EF80346002B01D001233F
:10823C0034E0BB68B3F1FF3F28D0FDF74FFF024697
:10824C007B68D31ABA689A4202D3BB68002B1DD143
:10825C00FB681B685B6903F00403042B16D0FB68F6
:10826C0000221A63FB68202283F83D20FB68002261
:10827C0083F83E20FB681B6C43F02002FB681A64F9
:10828C00FB68002283F83C20012307E0FB681B6895
:10829C005B6903F00403042BC3D100231846103789
:1082AC00BD4680BD80B483B000AF78607B681B682E
:1082BC005B6903F48063B3F5806F1BD17B681B682B
:1082CC006FF480625A617B6800221A637B682022FB
:1082DC0083F83D207B68002283F83E207B681B6C72
:1082EC0043F004027B681A647B68002283F83C200C
:1082FC00012300E0002318460C37BD4680BC7047B4
:10830C0080B586B000AF78607B68002B01D101236B
:10831C006CE27B681B6803F00103002B00F0878084
:10832C00924B5B6803F00C03042B0CD08F4B5B68F7
:10833C0003F00C03082B12D18C4B5B6803F48033D5
:10834C00B3F5803F0BD1894B1B6803F40033002B32
:10835C006CD07B685B68002B68D1012346E27B689C
:10836C005B68B3F5803F06D1804B1B687F4A43F4B2
:10837C00803313602EE07B685B68002B0CD17B4B49
:10838C001B687A4A23F480331360784B1B68774A56
:10839C0023F4802313601DE07B685B68B3F5A02F8A
:1083AC000CD1724B1B68714A43F4802313606F4BE2
:1083BC001B686E4A43F4803313600BE06B4B1B68F5
:1083CC006A4A23F480331360684B1B68674A23F4B2
:1083DC00802313607B685B68002B13D0FDF77EFE57
:1083EC00386108E0FDF77AFE02463B69D31A642B2C
:1083FC0001D90323FAE15D4B1B6803F40033002B16
:10840C00F0D014E0FDF76AFE386108E0FDF766FE77
:10841C0002463B69D31A642B01D90323E6E1534B83
:10842C001B6803F40033002BF0D100E000BF7B6825
:10843C001B6803F00203002B63D04C4B5B6803F00A
:10844C000C03002B0BD0494B5B6803F00C03082B7F
:10845C001CD1464B5B6803F48033002B16D1434B85
:10846C001B6803F00203002B05D07B681B69012BF2
:10847C0001D00123BAE13D4B1B6823F0F8027B6865
:10848C005B69DB00394913430B603AE07B681B697D
:10849C00002B20D0364B01221A60FDF71FFE3861ED
:1084AC0008E0FDF71BFE02463B69D31A022B01D9EB
:1084BC0003239BE12D4B1B6803F00203002BF0D030
:1084CC002A4B1B6823F0F8027B685B69DB002749A9
:1084DC0013430B6015E0264B00221A60FDF7FEFDDE
:1084EC00386108E0FDF7FAFD02463B69D31A022B0E
:1084FC0001D903237AE11D4B1B6803F00203002B07
:10850C00F0D17B681B6803F00803002B3AD07B6822
:10851C009B69002B19D0174B01221A60FDF7DEFD69
:10852C00386108E0FDF7DAFD02463B69D31A022BED
:10853C0001D903235AE10D4B5B6A03F00203002BB4
:10854C00F0D0012000F0B8FA1CE00A4B00221A60AF
:10855C00FDF7C4FD38610FE0FDF7C0FD02463B6935
:10856C00D31A022B08D9032340E100BF00100240AC
:10857C0000004242800442429E4B5B6A03F00203BD
:10858C00002BE9D17B681B6803F00403002B00F07F
:10859C00A6800023FB75974BDB6903F08053002BFF
:1085AC000DD1944BDB69934A43F08053D361914BCB
:1085BC00DB6903F08053BB60BB680123FB758E4BFA
:1085CC001B6803F48073002B18D18B4B1B688A4AF1
:1085DC0043F480731360FDF781FD386108E0FDF70B
:1085EC007DFD02463B69D31A642B01D90323FDE0C0
:1085FC00814B1B6803F48073002BF0D07B68DB6825
:10860C00012B06D17B4B1B6A7A4A43F001031362A0
:10861C002DE07B68DB68002B0CD1764B1B6A754A0E
:10862C0023F001031362734B1B6A724A23F0040399
:10863C0013621CE07B68DB68052B0CD16D4B1B6A4D
:10864C006C4A43F0040313626A4B1B6A694A43F099
:10865C00010313620BE0674B1B6A664A23F00103AC
:10866C001362644B1B6A634A23F0040313627B6836
:10867C00DB68002B15D0FDF731FD38610AE0FDF702
:10868C002DFD02463B69D31A41F28832934201D93F
:10869C000323ABE0574B1B6A03F00203002BEED015
:1086AC0014E0FDF71BFD38610AE0FDF717FD0246EB
:1086BC003B69D31A41F28832934201D9032395E0E6
:1086CC004C4B1B6A03F00203002BEED1FB7D012BFC
:1086DC0005D1484BDB69474A23F08053D3617B6853
:1086EC00DB69002B00F08180424B5B6803F00C03CC
:1086FC00082B61D07B68DB69022B46D13F4B0022F3
:10870C001A60FDF7EBFC386108E0FDF7E7FC024668
:10871C003B69D31A022B01D9032367E0354B1B6845
:10872C0003F00073002BF0D17B681B6AB3F5803F1C
:10873C0008D1304B5B6823F400327B689B682D4971
:10874C0013434B602B4B5B6823F474127B68196AE0
:10875C007B685B6A0B43274913434B60274B012211
:10876C001A60FDF7BBFC386108E0FDF7B7FC024668
:10877C003B69D31A022B01D9032337E01D4B1B682D
:10878C0003F00073002BF0D02FE01C4B00221A607A
:10879C00FDF7A4FC386108E0FDF7A0FC02463B693C
:1087AC00D31A022B01D9032320E0124B1B6803F0D0
:1087BC000073002BF0D118E07B68DB69012B01D131
:1087CC00012313E00B4B5B68FB60FB6803F4803206
:1087DC007B681B6A9A4206D1FB6803F470127B68B3
:1087EC005B6A9A4201D0012300E000231846183737
:1087FC00BD4680BD00100240007000406000424247
:10880C0080B584B000AF786039607B68002B01D1F3
:10881C000123D0E06A4B1B6803F007033A689A42C5
:10882C0010D9674B1B6823F0070265493B6813435B
:10883C000B60634B1B6803F007033A689A4201D044
:10884C000123B8E07B681B6803F00203002B20D0E7
:10885C007B681B6803F00403002B05D0594B5B6845
:10886C00584A43F4E06353607B681B6803F00803C9
:10887C00002B05D0534B5B68524A43F46053536052
:10888C00504B5B6823F0F0027B689B684D491343A7
:10889C004B607B681B6803F00103002B40D07B68A6
:1088AC005B68012B07D1474B1B6803F40033002B8B
:1088BC0015D101237FE07B685B68022B07D1414B0C
:1088CC001B6803F00073002B09D1012373E03D4BAF
:1088DC001B6803F00203002B01D101236BE0394B21
:1088EC005B6823F003027B685B68364913434B607B
:1088FC00FDF7F4FBF8600AE0FDF7F0FB0246FB68BD
:10890C00D31A41F28832934201D9032353E02D4B01
:10891C005B6803F00C027B685B689B009A42EBD1AE
:10892C00274B1B6803F007033A689A4210D2244B7A
:10893C001B6823F0070222493B6813430B60204B52
:10894C001B6803F007033A689A4201D0012332E016
:10895C007B681B6803F00403002B08D0194B5B6881
:10896C0023F4E0627B68DB68164913434B607B6839
:10897C001B6803F00803002B09D0124B5B6823F42F
:10898C0060527B681B69DB000E4913434B6000F09F
:10899C0021F801460B4B5B681B0903F00F030A4AD5
:1089AC00D35C21FA03F3094A1360094B1B68184680
:1089BC00FDF752FB002318461037BD4680BD00BFA3
:1089CC0000200240001002404494000808000020DF
:1089DC000C00002080B487B000AF0023FB600023A4
:1089EC00BB6000237B6100237B6000233B611E4B3B
:1089FC005B68FB60FB6803F00C03042B02D0082BB4
:108A0C0003D027E0194B3B6127E0FB689B0C03F07C
:108A1C000F03174AD35C7B60FB6803F48033002B95
:108A2C0010D0114B5B685B0C03F00103114AD35C53
:108A3C00BB607B680D4A02FB03F2BB68B2FBF3F32D
:108A4C007B6104E07B680C4A02FB03F37B617B696E
:108A5C003B6102E0054B3B6100BF3B6918461C378C
:108A6C00BD4680BC704700BF0010024000127A0067
:108A7C005C9400086C94000800093D0080B400AFC1
:108A8C00024B1B681846BD4680BC7047080000208E
:108A9C0080B500AFFFF7F2FF0146054B5B681B0A80
:108AAC0003F00703034AD35C21FA03F3184680BD95
:108ABC00001002405494000880B485B000AF786078
:108ACC000A4B1B680A4AA2FB03235B0A7A6802FB67
:108ADC0003F3FB6000BFFB685A1EFA60002BF9D150
:108AEC0000BF1437BD4680BC704700BF0800002093
:108AFC00D34D621070B500250C4E0D4CA41BA41068
:108B0C00A54209D100F022F800250A4E0A4CA41BFC
:108B1C00A410A54205D170BD56F8253098470135F3
:108B2C00EEE756F8253098470135F2E770940008C7
:108B3C007094000870940008749400080346024472
:108B4C00934200D1704703F8011BF9E7F8B500BF59
:108B5C00F8BC08BC9E467047F8B500BFF8BC08BC12
:048B6C009E4670476A
:108B70004F4B555044415445000000004E4F555056
:108B800044415445000000004661696C3A496E76E4
:108B9000616C69642053697A650000004E6F20752E
:108BA00070646174657320617661696C2E000000E9
:108BB000496E7374616C6C205375636365737320C5
:108BC00021000000454D4500426C696E6B696E677F
:108BD00020657665727920327300000050726573EB
:108BE00073203420746F2075706461746500000018
:108BF0002D3E204E65772056657273696F6E0000BA
:108C0000417661696C61626C652050726573732096
:108C100033000000506C65617365207761697400F2
:108C2000436865636B696E6720666F7200000000C1
:108C3000757064617465732E2E2E000043484543A1
:108C40004B555044000000005550445453495A4578
:108C50000000000052657472696576696E67207362
:108C6000697A652E2E000000566572696679696E14
:108C7000672073697A652E2E2E000000537461728E
:108C800074696E67207570646174652E2E00000033
:108C9000535441525455504400000000446F776EC5
:108CA0006C6F6164696E672064617461200000000C
:108CB000556E7061636B696E6720646174612E2EFE
:108CC0002E000000496E7374616C6C696E672075CC
:108CD0007064617465000000000000000000000086
:108CE0000000000000000000000000000010001064
:108CF0000010001000100010000000100000000024
:108D000000280028002800000000000000000000EB
:108D10000000000000240024007C00240048007CA7
:108D2000004800480000000000380054005000389F
:108D300000140054005400380010000000200054BB
:108D40000058003000280054001400080000000003
:108D500000100028002800100034004800480034AB
:108D600000000000001000100010000000000000D3
:108D7000000000000000000000080010002000209B
:108D8000002000200020002000100008002000101B
:108D90000008000800080008000800080010002073
:108DA0000010003800100028000000000000000043
:108DB000000000000000000000100010007C001007
:108DC0000010000000000000000000000000000093
:108DD0000000000000000010001000100000000063
:108DE000000000000000003800000000000000004B
:108DF0000000000000000000000000000000001063
:108E00000000000000080008001000100010001012
:108E100000200020000000000038004400440054FE
:108E200000440044004400380000000000100030FE
:108E30000050001000100010001000100000000092
:108E40000038004400440004000800100020007CAA
:108E50000000000000380044000400180004000472
:108E60000044003800000000000800180028002816
:108E70000048007C0008000800000000007C004062
:108E800000400078000400040044003800000000A6
:108E9000003800440040007800440044004400389A
:108EA00000000000007C00040008001000100020FA
:108EB000002000200000000000380044004400387A
:108EC0000044004400440038000000000038004422
:108ED00000440044003C000400440038000000004E
:108EE0000000000000100000000000000000001062
:108EF0000000000000000000000000100000000062
:108F0000000000100010001000000000000C0030F5
:108F100000400030000C00000000000000000000D5
:108F20000000007C0000007C000000000000000049
:108F3000000000000060001800040018006000003D
:108F40000000000000380044000400080010001079
:108F5000000000100000000000380044004C0054E5
:108F6000005C0040004000380000000000100028B5
:108F7000002800280028007C004400440000000075
:108F80000078004400440078004400440044007825
:108F90000000000000380044004000400040004055
:108FA0000044003800000000007000480044004405
:108FB000004400440048007000000000007C0040B5
:108FC0000040007C004000400040007C00000000A9
:108FD000007C00400040007800400040004000401D
:108FE000000000000038004400400040005C0044E5
:108FF0000044003800000000004400440044007CAD
:109000000044004400440044000000000038001008
:1090100000100010001000100010003800000000C8
:1090200000040004000400040004000400440038AC
:10903000000000000044004800500060005000485C
:109040000048004400000000004000400040004094
:10905000004000400040007C000000000044006C24
:10906000006C005400440044004400440000000030
:1090700000440064006400540054004C004C004460
:109080000000000000380044004400440044004454
:109090000044003800000000007800440044004410
:1090A000007800400040004000000000003800440C
:1090B0000044004400440044005400380004000010
:1090C0000078004400440044007800480048004410
:1090D0000000000000380044004000300008000498
:1090E0000044003800000000007C00100010001058
:1090F00000100010001000100000000000440044A8
:1091000000440044004400440044003800000000D3
:1091100000440044004400280028002800100010EB
:109120000000000000440044005400540054006C4F
:10913000002800280000000000440028002800103B
:1091400000100028002800440000000000440044F3
:10915000002800280010001000100010000000007F
:10916000007C000400080010001000200040007C7B
:109170000000000000180010001000100010001087
:109180000010001000100018002000200010001037
:10919000001000100008000800000000003000105F
:1091A000001000100010001000100010001000301F
:1091B000001000280028004400000000000000000B
:1091C000000000000000000000000000000000009F
:1091D00000000000000000FE002000100000000061
:1091E000000000000000000000000000000000007F
:1091F00000380044003C0044004C003400000000F3
:1092000000400040005800640044004400640058DE
:109210000000000000000000003800440040004052
:109220000044003800000000000400040034004C3A
:1092300000440044004C0034000000000000000026
:1092400000380044007C004000440038000000006A
:10925000000C0010007C0010001000100010001026
:1092600000000000000000000034004C00440044F6
:10927000004C0034000400780040004000580064B6
:1092800000440044004400440000000000100000BE
:10929000007000100010001000100010000000000E
:1092A00000100000007000100010001000100010EE
:1092B000001000E0004000400048005000600050F6
:1092C0000048004400000000007000100010001072
:1092D000001000100010001000000000000000004E
:1092E0000078005400540054005400540000000062
:1092F00000000000005800640044004400440044A2
:109300000000000000000000003800440044004459
:109310000044003800000000000000000058006415
:109320000044004400640058004000400000000079
:109330000034004C00440044004C0034000400049D
:109340000000000000580064004000400040004061
:109350000000000000000000003800440030000859
:1093600000440038000000000020002000780020A9
:109370000020002000200018000000000000000075
:109380000044004400440044004C0034000000004D
:1093900000000000004400440028002800280010BD
:1093A0000000000000000000005400540054006C55
:1093B00000280028000000000000000000440028F1
:1093C0000010001000280044000000000000000011
:1093D0000044004400280028001000100010006025
:1093E00000000000007C0008001000200040007C0D
:1093F00000000000001800100010001000200020E5
:1094000000100010001000180010001000100010D4
:1094100000100010001000100010001000300010AC
:1094200000100010000800080010001000100030AC
:109430000000000000000074004C0000000000006C
:109440000000000000000000000000000102030412
:1094500006070809000000000102030402030405D6
:10946000060708090A0B0C0D0E0F10100102000070
:04947000314D000872
:049474000D4D000892
:10947800070A0000D88C00080024F400100000003F
:0494880001000000DF
:0400000508005FEDA3
:00000001FF
